{
  "contractName": "EBookToken",
  "abi": [
    {
      "inputs": [
        {
          "internalType": "uint256",
          "name": "tokenAmount",
          "type": "uint256"
        }
      ],
      "stateMutability": "nonpayable",
      "type": "constructor"
    },
    {
      "anonymous": false,
      "inputs": [
        {
          "indexed": true,
          "internalType": "address",
          "name": "owner",
          "type": "address"
        },
        {
          "indexed": true,
          "internalType": "address",
          "name": "spender",
          "type": "address"
        },
        {
          "indexed": false,
          "internalType": "uint256",
          "name": "value",
          "type": "uint256"
        }
      ],
      "name": "Approval",
      "type": "event"
    },
    {
      "anonymous": false,
      "inputs": [
        {
          "indexed": true,
          "internalType": "address",
          "name": "from",
          "type": "address"
        },
        {
          "indexed": true,
          "internalType": "address",
          "name": "to",
          "type": "address"
        },
        {
          "indexed": false,
          "internalType": "uint256",
          "name": "value",
          "type": "uint256"
        }
      ],
      "name": "Transfer",
      "type": "event"
    },
    {
      "inputs": [],
      "name": "admin",
      "outputs": [
        {
          "internalType": "address payable",
          "name": "",
          "type": "address"
        }
      ],
      "stateMutability": "view",
      "type": "function",
      "constant": true
    },
    {
      "inputs": [
        {
          "internalType": "address",
          "name": "owner",
          "type": "address"
        },
        {
          "internalType": "address",
          "name": "spender",
          "type": "address"
        }
      ],
      "name": "allowance",
      "outputs": [
        {
          "internalType": "uint256",
          "name": "",
          "type": "uint256"
        }
      ],
      "stateMutability": "view",
      "type": "function",
      "constant": true
    },
    {
      "inputs": [
        {
          "internalType": "address",
          "name": "spender",
          "type": "address"
        },
        {
          "internalType": "uint256",
          "name": "amount",
          "type": "uint256"
        }
      ],
      "name": "approve",
      "outputs": [
        {
          "internalType": "bool",
          "name": "",
          "type": "bool"
        }
      ],
      "stateMutability": "nonpayable",
      "type": "function"
    },
    {
      "inputs": [
        {
          "internalType": "address",
          "name": "account",
          "type": "address"
        }
      ],
      "name": "balanceOf",
      "outputs": [
        {
          "internalType": "uint256",
          "name": "",
          "type": "uint256"
        }
      ],
      "stateMutability": "view",
      "type": "function",
      "constant": true
    },
    {
      "inputs": [],
      "name": "decimals",
      "outputs": [
        {
          "internalType": "uint8",
          "name": "",
          "type": "uint8"
        }
      ],
      "stateMutability": "view",
      "type": "function",
      "constant": true
    },
    {
      "inputs": [
        {
          "internalType": "address",
          "name": "spender",
          "type": "address"
        },
        {
          "internalType": "uint256",
          "name": "subtractedValue",
          "type": "uint256"
        }
      ],
      "name": "decreaseAllowance",
      "outputs": [
        {
          "internalType": "bool",
          "name": "",
          "type": "bool"
        }
      ],
      "stateMutability": "nonpayable",
      "type": "function"
    },
    {
      "inputs": [
        {
          "internalType": "address",
          "name": "spender",
          "type": "address"
        },
        {
          "internalType": "uint256",
          "name": "addedValue",
          "type": "uint256"
        }
      ],
      "name": "increaseAllowance",
      "outputs": [
        {
          "internalType": "bool",
          "name": "",
          "type": "bool"
        }
      ],
      "stateMutability": "nonpayable",
      "type": "function"
    },
    {
      "inputs": [],
      "name": "name",
      "outputs": [
        {
          "internalType": "string",
          "name": "",
          "type": "string"
        }
      ],
      "stateMutability": "view",
      "type": "function",
      "constant": true
    },
    {
      "inputs": [],
      "name": "symbol",
      "outputs": [
        {
          "internalType": "string",
          "name": "",
          "type": "string"
        }
      ],
      "stateMutability": "view",
      "type": "function",
      "constant": true
    },
    {
      "inputs": [],
      "name": "totalSupply",
      "outputs": [
        {
          "internalType": "uint256",
          "name": "",
          "type": "uint256"
        }
      ],
      "stateMutability": "view",
      "type": "function",
      "constant": true
    },
    {
      "inputs": [
        {
          "internalType": "address",
          "name": "recipient",
          "type": "address"
        },
        {
          "internalType": "uint256",
          "name": "amount",
          "type": "uint256"
        }
      ],
      "name": "transfer",
      "outputs": [
        {
          "internalType": "bool",
          "name": "",
          "type": "bool"
        }
      ],
      "stateMutability": "nonpayable",
      "type": "function"
    },
    {
      "inputs": [
        {
          "internalType": "address",
          "name": "sender",
          "type": "address"
        },
        {
          "internalType": "address",
          "name": "recipient",
          "type": "address"
        },
        {
          "internalType": "uint256",
          "name": "amount",
          "type": "uint256"
        }
      ],
      "name": "transferFrom",
      "outputs": [
        {
          "internalType": "bool",
          "name": "",
          "type": "bool"
        }
      ],
      "stateMutability": "nonpayable",
      "type": "function"
    },
    {
      "inputs": [],
      "name": "buyToken",
      "outputs": [],
      "stateMutability": "payable",
      "type": "function",
      "payable": true
    }
  ],
  "bytecode": "0x60806040523480156200001157600080fd5b5060405162001f6138038062001f618339818101604052810190620000379190620003d7565b6040518060400160405280600c81526020017f452d426f6f6b20546f6b656e00000000000000000000000000000000000000008152506040518060400160405280600381526020017f45425400000000000000000000000000000000000000000000000000000000008152508160039080519060200190620000bb929190620002e7565b508060049080519060200190620000d4929190620002e7565b5050506200011333620000ec6200015b60201b60201c565b600a620000fa919062000599565b83620001079190620005ea565b6200016460201b60201c565b33600560006101000a81548173ffffffffffffffffffffffffffffffffffffffff021916908373ffffffffffffffffffffffffffffffffffffffff16021790555050620007be565b60006012905090565b600073ffffffffffffffffffffffffffffffffffffffff168273ffffffffffffffffffffffffffffffffffffffff161415620001d7576040517f08c379a0000000000000000000000000000000000000000000000000000000008152600401620001ce90620006ac565b60405180910390fd5b620001eb60008383620002dd60201b60201c565b8060026000828254620001ff9190620006ce565b92505081905550806000808473ffffffffffffffffffffffffffffffffffffffff1673ffffffffffffffffffffffffffffffffffffffff1681526020019081526020016000206000828254620002569190620006ce565b925050819055508173ffffffffffffffffffffffffffffffffffffffff16600073ffffffffffffffffffffffffffffffffffffffff167fddf252ad1be2c89b69c2b068fc378daa952ba7f163c4a11628f55a4df523b3ef83604051620002bd91906200073c565b60405180910390a3620002d960008383620002e260201b60201c565b5050565b505050565b505050565b828054620002f59062000788565b90600052602060002090601f01602090048101928262000319576000855562000365565b82601f106200033457805160ff191683800117855562000365565b8280016001018555821562000365579182015b828111156200036457825182559160200191906001019062000347565b5b50905062000374919062000378565b5090565b5b808211156200039357600081600090555060010162000379565b5090565b600080fd5b6000819050919050565b620003b1816200039c565b8114620003bd57600080fd5b50565b600081519050620003d181620003a6565b92915050565b600060208284031215620003f057620003ef62000397565b5b60006200040084828501620003c0565b91505092915050565b7f4e487b7100000000000000000000000000000000000000000000000000000000600052601160045260246000fd5b60008160011c9050919050565b6000808291508390505b600185111562000497578086048111156200046f576200046e62000409565b5b60018516156200047f5780820291505b80810290506200048f8562000438565b94506200044f565b94509492505050565b600082620004b2576001905062000585565b81620004c2576000905062000585565b8160018114620004db5760028114620004e6576200051c565b600191505062000585565b60ff841115620004fb57620004fa62000409565b5b8360020a91508482111562000515576200051462000409565b5b5062000585565b5060208310610133831016604e8410600b8410161715620005565782820a90508381111562000550576200054f62000409565b5b62000585565b62000565848484600162000445565b925090508184048111156200057f576200057e62000409565b5b81810290505b9392505050565b600060ff82169050919050565b6000620005a6826200039c565b9150620005b3836200058c565b9250620005e27fffffffffffffffffffffffffffffffffffffffffffffffffffffffffffffffff8484620004a0565b905092915050565b6000620005f7826200039c565b915062000604836200039c565b9250817fffffffffffffffffffffffffffffffffffffffffffffffffffffffffffffffff048311821515161562000640576200063f62000409565b5b828202905092915050565b600082825260208201905092915050565b7f45524332303a206d696e7420746f20746865207a65726f206164647265737300600082015250565b600062000694601f836200064b565b9150620006a1826200065c565b602082019050919050565b60006020820190508181036000830152620006c78162000685565b9050919050565b6000620006db826200039c565b9150620006e8836200039c565b9250827fffffffffffffffffffffffffffffffffffffffffffffffffffffffffffffffff0382111562000720576200071f62000409565b5b828201905092915050565b62000736816200039c565b82525050565b60006020820190506200075360008301846200072b565b92915050565b7f4e487b7100000000000000000000000000000000000000000000000000000000600052602260045260246000fd5b60006002820490506001821680620007a157607f821691505b60208210811415620007b857620007b762000759565b5b50919050565b61179380620007ce6000396000f3fe6080604052600436106100c25760003560e01c806370a082311161007f578063a482171911610059578063a4821719146102a4578063a9059cbb146102ae578063dd62ed3e146102eb578063f851a44014610328576100c2565b806370a08231146101ff57806395d89b411461023c578063a457c2d714610267576100c2565b806306fdde03146100c7578063095ea7b3146100f257806318160ddd1461012f57806323b872dd1461015a578063313ce5671461019757806339509351146101c2575b600080fd5b3480156100d357600080fd5b506100dc610353565b6040516100e99190610eb9565b60405180910390f35b3480156100fe57600080fd5b5061011960048036038101906101149190610f74565b6103e5565b6040516101269190610fcf565b60405180910390f35b34801561013b57600080fd5b50610144610403565b6040516101519190610ff9565b60405180910390f35b34801561016657600080fd5b50610181600480360381019061017c9190611014565b61040d565b60405161018e9190610fcf565b60405180910390f35b3480156101a357600080fd5b506101ac610505565b6040516101b99190611083565b60405180910390f35b3480156101ce57600080fd5b506101e960048036038101906101e49190610f74565b61050e565b6040516101f69190610fcf565b60405180910390f35b34801561020b57600080fd5b506102266004803603810190610221919061109e565b6105ba565b6040516102339190610ff9565b60405180910390f35b34801561024857600080fd5b50610251610602565b60405161025e9190610eb9565b60405180910390f35b34801561027357600080fd5b5061028e60048036038101906102899190610f74565b610694565b60405161029b9190610fcf565b60405180910390f35b6102ac61077f565b005b3480156102ba57600080fd5b506102d560048036038101906102d09190610f74565b6108f7565b6040516102e29190610fcf565b60405180910390f35b3480156102f757600080fd5b50610312600480360381019061030d91906110cb565b610915565b60405161031f9190610ff9565b60405180910390f35b34801561033457600080fd5b5061033d61099c565b60405161034a919061112c565b60405180910390f35b60606003805461036290611176565b80601f016020809104026020016040519081016040528092919081815260200182805461038e90611176565b80156103db5780601f106103b0576101008083540402835291602001916103db565b820191906000526020600020905b8154815290600101906020018083116103be57829003601f168201915b5050505050905090565b60006103f96103f26109c2565b84846109ca565b6001905092915050565b6000600254905090565b600061041a848484610b95565b6000600160008673ffffffffffffffffffffffffffffffffffffffff1673ffffffffffffffffffffffffffffffffffffffff16815260200190815260200160002060006104656109c2565b73ffffffffffffffffffffffffffffffffffffffff1673ffffffffffffffffffffffffffffffffffffffff168152602001908152602001600020549050828110156104e5576040517f08c379a00000000000000000000000000000000000000000000000000000000081526004016104dc9061121a565b60405180910390fd5b6104f9856104f16109c2565b8584036109ca565b60019150509392505050565b60006012905090565b60006105b061051b6109c2565b8484600160006105296109c2565b73ffffffffffffffffffffffffffffffffffffffff1673ffffffffffffffffffffffffffffffffffffffff16815260200190815260200160002060008873ffffffffffffffffffffffffffffffffffffffff1673ffffffffffffffffffffffffffffffffffffffff168152602001908152602001600020546105ab9190611269565b6109ca565b6001905092915050565b60008060008373ffffffffffffffffffffffffffffffffffffffff1673ffffffffffffffffffffffffffffffffffffffff168152602001908152602001600020549050919050565b60606004805461061190611176565b80601f016020809104026020016040519081016040528092919081815260200182805461063d90611176565b801561068a5780601f1061065f5761010080835404028352916020019161068a565b820191906000526020600020905b81548152906001019060200180831161066d57829003601f168201915b5050505050905090565b600080600160006106a36109c2565b73ffffffffffffffffffffffffffffffffffffffff1673ffffffffffffffffffffffffffffffffffffffff16815260200190815260200160002060008573ffffffffffffffffffffffffffffffffffffffff1673ffffffffffffffffffffffffffffffffffffffff16815260200190815260200160002054905082811015610760576040517f08c379a000000000000000000000000000000000000000000000000000000000815260040161075790611331565b60405180910390fd5b61077461076b6109c2565b858584036109ca565b600191505092915050565b600560009054906101000a900473ffffffffffffffffffffffffffffffffffffffff1673ffffffffffffffffffffffffffffffffffffffff163373ffffffffffffffffffffffffffffffffffffffff161415610810576040517f08c379a00000000000000000000000000000000000000000000000000000000081526004016108079061139d565b60405180910390fd5b60003411610853576040517f08c379a000000000000000000000000000000000000000000000000000000000815260040161084a90611409565b60405180910390fd5b61088c600560009054906101000a900473ffffffffffffffffffffffffffffffffffffffff1633600a346108879190611429565b610b95565b600560009054906101000a900473ffffffffffffffffffffffffffffffffffffffff1673ffffffffffffffffffffffffffffffffffffffff166108fc349081150290604051600060405180830381858888f193505050501580156108f4573d6000803e3d6000fd5b50565b600061090b6109046109c2565b8484610b95565b6001905092915050565b6000600160008473ffffffffffffffffffffffffffffffffffffffff1673ffffffffffffffffffffffffffffffffffffffff16815260200190815260200160002060008373ffffffffffffffffffffffffffffffffffffffff1673ffffffffffffffffffffffffffffffffffffffff16815260200190815260200160002054905092915050565b600560009054906101000a900473ffffffffffffffffffffffffffffffffffffffff1681565b600033905090565b600073ffffffffffffffffffffffffffffffffffffffff168373ffffffffffffffffffffffffffffffffffffffff161415610a3a576040517f08c379a0000000000000000000000000000000000000000000000000000000008152600401610a31906114f5565b60405180910390fd5b600073ffffffffffffffffffffffffffffffffffffffff168273ffffffffffffffffffffffffffffffffffffffff161415610aaa576040517f08c379a0000000000000000000000000000000000000000000000000000000008152600401610aa190611587565b60405180910390fd5b80600160008573ffffffffffffffffffffffffffffffffffffffff1673ffffffffffffffffffffffffffffffffffffffff16815260200190815260200160002060008473ffffffffffffffffffffffffffffffffffffffff1673ffffffffffffffffffffffffffffffffffffffff168152602001908152602001600020819055508173ffffffffffffffffffffffffffffffffffffffff168373ffffffffffffffffffffffffffffffffffffffff167f8c5be1e5ebec7d5bd14f71427d1e84f3dd0314c0f7b2291e5b200ac8c7c3b92583604051610b889190610ff9565b60405180910390a3505050565b600073ffffffffffffffffffffffffffffffffffffffff168373ffffffffffffffffffffffffffffffffffffffff161415610c05576040517f08c379a0000000000000000000000000000000000000000000000000000000008152600401610bfc90611619565b60405180910390fd5b600073ffffffffffffffffffffffffffffffffffffffff168273ffffffffffffffffffffffffffffffffffffffff161415610c75576040517f08c379a0000000000000000000000000000000000000000000000000000000008152600401610c6c906116ab565b60405180910390fd5b610c80838383610e16565b60008060008573ffffffffffffffffffffffffffffffffffffffff1673ffffffffffffffffffffffffffffffffffffffff16815260200190815260200160002054905081811015610d06576040517f08c379a0000000000000000000000000000000000000000000000000000000008152600401610cfd9061173d565b60405180910390fd5b8181036000808673ffffffffffffffffffffffffffffffffffffffff1673ffffffffffffffffffffffffffffffffffffffff16815260200190815260200160002081905550816000808573ffffffffffffffffffffffffffffffffffffffff1673ffffffffffffffffffffffffffffffffffffffff1681526020019081526020016000206000828254610d999190611269565b925050819055508273ffffffffffffffffffffffffffffffffffffffff168473ffffffffffffffffffffffffffffffffffffffff167fddf252ad1be2c89b69c2b068fc378daa952ba7f163c4a11628f55a4df523b3ef84604051610dfd9190610ff9565b60405180910390a3610e10848484610e1b565b50505050565b505050565b505050565b600081519050919050565b600082825260208201905092915050565b60005b83811015610e5a578082015181840152602081019050610e3f565b83811115610e69576000848401525b50505050565b6000601f19601f8301169050919050565b6000610e8b82610e20565b610e958185610e2b565b9350610ea5818560208601610e3c565b610eae81610e6f565b840191505092915050565b60006020820190508181036000830152610ed38184610e80565b905092915050565b600080fd5b600073ffffffffffffffffffffffffffffffffffffffff82169050919050565b6000610f0b82610ee0565b9050919050565b610f1b81610f00565b8114610f2657600080fd5b50565b600081359050610f3881610f12565b92915050565b6000819050919050565b610f5181610f3e565b8114610f5c57600080fd5b50565b600081359050610f6e81610f48565b92915050565b60008060408385031215610f8b57610f8a610edb565b5b6000610f9985828601610f29565b9250506020610faa85828601610f5f565b9150509250929050565b60008115159050919050565b610fc981610fb4565b82525050565b6000602082019050610fe46000830184610fc0565b92915050565b610ff381610f3e565b82525050565b600060208201905061100e6000830184610fea565b92915050565b60008060006060848603121561102d5761102c610edb565b5b600061103b86828701610f29565b935050602061104c86828701610f29565b925050604061105d86828701610f5f565b9150509250925092565b600060ff82169050919050565b61107d81611067565b82525050565b60006020820190506110986000830184611074565b92915050565b6000602082840312156110b4576110b3610edb565b5b60006110c284828501610f29565b91505092915050565b600080604083850312156110e2576110e1610edb565b5b60006110f085828601610f29565b925050602061110185828601610f29565b9150509250929050565b600061111682610ee0565b9050919050565b6111268161110b565b82525050565b6000602082019050611141600083018461111d565b92915050565b7f4e487b7100000000000000000000000000000000000000000000000000000000600052602260045260246000fd5b6000600282049050600182168061118e57607f821691505b602082108114156111a2576111a1611147565b5b50919050565b7f45524332303a207472616e7366657220616d6f756e742065786365656473206160008201527f6c6c6f77616e6365000000000000000000000000000000000000000000000000602082015250565b6000611204602883610e2b565b915061120f826111a8565b604082019050919050565b60006020820190508181036000830152611233816111f7565b9050919050565b7f4e487b7100000000000000000000000000000000000000000000000000000000600052601160045260246000fd5b600061127482610f3e565b915061127f83610f3e565b9250827fffffffffffffffffffffffffffffffffffffffffffffffffffffffffffffffff038211156112b4576112b361123a565b5b828201905092915050565b7f45524332303a2064656372656173656420616c6c6f77616e63652062656c6f7760008201527f207a65726f000000000000000000000000000000000000000000000000000000602082015250565b600061131b602583610e2b565b9150611326826112bf565b604082019050919050565b6000602082019050818103600083015261134a8161130e565b9050919050565b7f6f776e65722063616e206e6f742062757920746f6b656e000000000000000000600082015250565b6000611387601783610e2b565b915061139282611351565b602082019050919050565b600060208201905081810360008301526113b68161137a565b9050919050565b7f616d6f756e742063616e206e6f74206265203000000000000000000000000000600082015250565b60006113f3601383610e2b565b91506113fe826113bd565b602082019050919050565b60006020820190508181036000830152611422816113e6565b9050919050565b600061143482610f3e565b915061143f83610f3e565b9250817fffffffffffffffffffffffffffffffffffffffffffffffffffffffffffffffff04831182151516156114785761147761123a565b5b828202905092915050565b7f45524332303a20617070726f76652066726f6d20746865207a65726f2061646460008201527f7265737300000000000000000000000000000000000000000000000000000000602082015250565b60006114df602483610e2b565b91506114ea82611483565b604082019050919050565b6000602082019050818103600083015261150e816114d2565b9050919050565b7f45524332303a20617070726f766520746f20746865207a65726f20616464726560008201527f7373000000000000000000000000000000000000000000000000000000000000602082015250565b6000611571602283610e2b565b915061157c82611515565b604082019050919050565b600060208201905081810360008301526115a081611564565b9050919050565b7f45524332303a207472616e736665722066726f6d20746865207a65726f20616460008201527f6472657373000000000000000000000000000000000000000000000000000000602082015250565b6000611603602583610e2b565b915061160e826115a7565b604082019050919050565b60006020820190508181036000830152611632816115f6565b9050919050565b7f45524332303a207472616e7366657220746f20746865207a65726f206164647260008201527f6573730000000000000000000000000000000000000000000000000000000000602082015250565b6000611695602383610e2b565b91506116a082611639565b604082019050919050565b600060208201905081810360008301526116c481611688565b9050919050565b7f45524332303a207472616e7366657220616d6f756e742065786365656473206260008201527f616c616e63650000000000000000000000000000000000000000000000000000602082015250565b6000611727602683610e2b565b9150611732826116cb565b604082019050919050565b600060208201905081810360008301526117568161171a565b905091905056fea264697066735822122025bd023479ac09d75766f2b75bcb4e7a1571e326770b872dbcb03212bfbf5ed064736f6c634300080b0033",
  "immutableReferences": {},
  "source": "pragma solidity ^0.8.0;\nimport \"@openzeppelin/contracts/token/ERC20/ERC20.sol\";\n\ncontract EBookToken is ERC20{\n\n    address payable public admin;\n    \n    constructor(uint256 tokenAmount)ERC20('E-Book Token','EBT'){\n        _mint(msg.sender, tokenAmount* (10 ** decimals()));\n        admin= payable (msg.sender);\n    }\n\n    function buyToken()external payable{\n         require(msg.sender!=admin,\"owner can not buy token\");\n         require(msg.value>0,\"amount can not be 0\");\n         _transfer(admin,msg.sender,msg.value*10);\n        // _transfer(msg.sender,admin,msg.value);\n        admin.transfer(msg.value);\n    }    \n}",
  "sourcePath": "/home/shubham/Desktop/BlockChain/EBookShop/contracts/EBookToken.sol",
  "compiler": {
    "name": "solc",
    "version": "0.8.11+commit.d7f03943.Emscripten.clang"
  },
  "schemaVersion": "3.4.3",
  "updatedAt": "2022-01-22T07:49:17.563Z",
  "networkType": "ethereum",
  "devdoc": {
    "kind": "dev",
    "methods": {
      "allowance(address,address)": {
        "details": "See {IERC20-allowance}."
      },
      "approve(address,uint256)": {
        "details": "See {IERC20-approve}. Requirements: - `spender` cannot be the zero address."
      },
      "balanceOf(address)": {
        "details": "See {IERC20-balanceOf}."
      },
      "decimals()": {
        "details": "Returns the number of decimals used to get its user representation. For example, if `decimals` equals `2`, a balance of `505` tokens should be displayed to a user as `5.05` (`505 / 10 ** 2`). Tokens usually opt for a value of 18, imitating the relationship between Ether and Wei. This is the value {ERC20} uses, unless this function is overridden; NOTE: This information is only used for _display_ purposes: it in no way affects any of the arithmetic of the contract, including {IERC20-balanceOf} and {IERC20-transfer}."
      },
      "decreaseAllowance(address,uint256)": {
        "details": "Atomically decreases the allowance granted to `spender` by the caller. This is an alternative to {approve} that can be used as a mitigation for problems described in {IERC20-approve}. Emits an {Approval} event indicating the updated allowance. Requirements: - `spender` cannot be the zero address. - `spender` must have allowance for the caller of at least `subtractedValue`."
      },
      "increaseAllowance(address,uint256)": {
        "details": "Atomically increases the allowance granted to `spender` by the caller. This is an alternative to {approve} that can be used as a mitigation for problems described in {IERC20-approve}. Emits an {Approval} event indicating the updated allowance. Requirements: - `spender` cannot be the zero address."
      },
      "name()": {
        "details": "Returns the name of the token."
      },
      "symbol()": {
        "details": "Returns the symbol of the token, usually a shorter version of the name."
      },
      "totalSupply()": {
        "details": "See {IERC20-totalSupply}."
      },
      "transfer(address,uint256)": {
        "details": "See {IERC20-transfer}. Requirements: - `recipient` cannot be the zero address. - the caller must have a balance of at least `amount`."
      },
      "transferFrom(address,address,uint256)": {
        "details": "See {IERC20-transferFrom}. Emits an {Approval} event indicating the updated allowance. This is not required by the EIP. See the note at the beginning of {ERC20}. Requirements: - `sender` and `recipient` cannot be the zero address. - `sender` must have a balance of at least `amount`. - the caller must have allowance for ``sender``'s tokens of at least `amount`."
      }
    },
    "version": 1
  },
  "userdoc": {
    "kind": "user",
    "methods": {},
    "version": 1
  }
}