{
  "contractName": "EBookShop",
  "abi": [
    {
      "inputs": [],
      "stateMutability": "nonpayable",
      "type": "constructor"
    },
    {
      "anonymous": false,
      "inputs": [
        {
          "indexed": false,
          "internalType": "string",
          "name": "msgs",
          "type": "string"
        }
      ],
      "name": "Success",
      "type": "event"
    },
    {
      "inputs": [
        {
          "internalType": "string",
          "name": "_name",
          "type": "string"
        },
        {
          "internalType": "uint256",
          "name": "_price",
          "type": "uint256"
        },
        {
          "internalType": "string",
          "name": "_author",
          "type": "string"
        }
      ],
      "name": "addBook",
      "outputs": [],
      "stateMutability": "nonpayable",
      "type": "function"
    },
    {
      "inputs": [
        {
          "internalType": "uint256",
          "name": "_id",
          "type": "uint256"
        }
      ],
      "name": "getSpecificBook",
      "outputs": [
        {
          "components": [
            {
              "internalType": "string",
              "name": "name",
              "type": "string"
            },
            {
              "internalType": "bool",
              "name": "status",
              "type": "bool"
            },
            {
              "internalType": "uint256",
              "name": "price",
              "type": "uint256"
            },
            {
              "internalType": "string",
              "name": "author",
              "type": "string"
            }
          ],
          "internalType": "struct EBookShop.NewBook",
          "name": "",
          "type": "tuple"
        }
      ],
      "stateMutability": "view",
      "type": "function"
    },
    {
      "inputs": [],
      "name": "getAllBook",
      "outputs": [
        {
          "components": [
            {
              "internalType": "string",
              "name": "name",
              "type": "string"
            },
            {
              "internalType": "bool",
              "name": "status",
              "type": "bool"
            },
            {
              "internalType": "uint256",
              "name": "price",
              "type": "uint256"
            },
            {
              "internalType": "string",
              "name": "author",
              "type": "string"
            }
          ],
          "internalType": "struct EBookShop.NewBook[]",
          "name": "",
          "type": "tuple[]"
        }
      ],
      "stateMutability": "view",
      "type": "function"
    },
    {
      "inputs": [
        {
          "internalType": "uint256",
          "name": "_id",
          "type": "uint256"
        }
      ],
      "name": "buyBook",
      "outputs": [],
      "stateMutability": "payable",
      "type": "function"
    },
    {
      "inputs": [],
      "name": "balanceOf",
      "outputs": [
        {
          "internalType": "uint256",
          "name": "",
          "type": "uint256"
        }
      ],
      "stateMutability": "view",
      "type": "function"
    }
  ],
  "bytecode": "0x608060405234801561001057600080fd5b5033600160006101000a81548173ffffffffffffffffffffffffffffffffffffffff021916908373ffffffffffffffffffffffffffffffffffffffff16021790555061108e806100616000396000f3fe60806040526004361061004a5760003560e01c80634428fef91461004f5780635ef935fa1461008c5780636ee26566146100b7578063722713f7146100d35780638a5cd7b2146100fe575b600080fd5b34801561005b57600080fd5b50610076600480360381019061007191906108ca565b610127565b6040516100839190610a24565b60405180910390f35b34801561009857600080fd5b506100a16102ac565b6040516100ae9190610b72565b60405180910390f35b6100d160048036038101906100cc91906108ca565b610454565b005b3480156100df57600080fd5b506100e86105ed565b6040516100f59190610ba3565b60405180910390f35b34801561010a57600080fd5b5061012560048036038101906101209190610cf3565b61062e565b005b61012f6107b3565b6000828154811061014357610142610d7e565b5b906000526020600020906004020160405180608001604052908160008201805461016c90610ddc565b80601f016020809104026020016040519081016040528092919081815260200182805461019890610ddc565b80156101e55780601f106101ba576101008083540402835291602001916101e5565b820191906000526020600020905b8154815290600101906020018083116101c857829003601f168201915b505050505081526020016001820160009054906101000a900460ff161515151581526020016002820154815260200160038201805461022390610ddc565b80601f016020809104026020016040519081016040528092919081815260200182805461024f90610ddc565b801561029c5780601f106102715761010080835404028352916020019161029c565b820191906000526020600020905b81548152906001019060200180831161027f57829003601f168201915b5050505050815250509050919050565b60606000805480602002602001604051908101604052809291908181526020016000905b8282101561044b578382906000526020600020906004020160405180608001604052908160008201805461030390610ddc565b80601f016020809104026020016040519081016040528092919081815260200182805461032f90610ddc565b801561037c5780601f106103515761010080835404028352916020019161037c565b820191906000526020600020905b81548152906001019060200180831161035f57829003601f168201915b505050505081526020016001820160009054906101000a900460ff16151515158152602001600282015481526020016003820180546103ba90610ddc565b80601f01602080910402602001604051908101604052809291908181526020018280546103e690610ddc565b80156104335780601f1061040857610100808354040283529160200191610433565b820191906000526020600020905b81548152906001019060200180831161041657829003601f168201915b505050505081525050815260200190600101906102d0565b50505050905090565b600160009054906101000a900473ffffffffffffffffffffffffffffffffffffffff1673ffffffffffffffffffffffffffffffffffffffff163373ffffffffffffffffffffffffffffffffffffffff1614156104e5576040517f08c379a00000000000000000000000000000000000000000000000000000000081526004016104dc90610e6b565b60405180910390fd5b60008082815481106104fa576104f9610d7e565b5b90600052602060002090600402019050670de0b6b3a764000081600201546105229190610eba565b3414610563576040517f08c379a000000000000000000000000000000000000000000000000000000000815260040161055a90610f60565b60405180910390fd5b60018160010160006101000a81548160ff021916908315150217905550600160009054906101000a900473ffffffffffffffffffffffffffffffffffffffff1673ffffffffffffffffffffffffffffffffffffffff166108fc349081150290604051600060405180830381858888f193505050501580156105e8573d6000803e3d6000fd5b505050565b6000600160009054906101000a900473ffffffffffffffffffffffffffffffffffffffff1673ffffffffffffffffffffffffffffffffffffffff1631905090565b600160009054906101000a900473ffffffffffffffffffffffffffffffffffffffff1673ffffffffffffffffffffffffffffffffffffffff163373ffffffffffffffffffffffffffffffffffffffff16146106be576040517f08c379a00000000000000000000000000000000000000000000000000000000081526004016106b590610fcc565b60405180910390fd5b600060405180608001604052808581526020016000151581526020018481526020018381525090506000819080600181540180825580915050600190039060005260206000209060040201600090919091909150600082015181600001908051906020019061072e9291906107dd565b5060208201518160010160006101000a81548160ff0219169083151502179055506040820151816002015560608201518160030190805190602001906107759291906107dd565b5050507f166b96a382dc3abc86ba052ca9c020cfd7022d2d3059e868918a3d20779e41cc6040516107a590611038565b60405180910390a150505050565b60405180608001604052806060815260200160001515815260200160008152602001606081525090565b8280546107e990610ddc565b90600052602060002090601f01602090048101928261080b5760008555610852565b82601f1061082457805160ff1916838001178555610852565b82800160010185558215610852579182015b82811115610851578251825591602001919060010190610836565b5b50905061085f9190610863565b5090565b5b8082111561087c576000816000905550600101610864565b5090565b6000604051905090565b600080fd5b600080fd5b6000819050919050565b6108a781610894565b81146108b257600080fd5b50565b6000813590506108c48161089e565b92915050565b6000602082840312156108e0576108df61088a565b5b60006108ee848285016108b5565b91505092915050565b600081519050919050565b600082825260208201905092915050565b60005b83811015610931578082015181840152602081019050610916565b83811115610940576000848401525b50505050565b6000601f19601f8301169050919050565b6000610962826108f7565b61096c8185610902565b935061097c818560208601610913565b61098581610946565b840191505092915050565b60008115159050919050565b6109a581610990565b82525050565b6109b481610894565b82525050565b600060808301600083015184820360008601526109d78282610957565b91505060208301516109ec602086018261099c565b5060408301516109ff60408601826109ab565b5060608301518482036060860152610a178282610957565b9150508091505092915050565b60006020820190508181036000830152610a3e81846109ba565b905092915050565b600081519050919050565b600082825260208201905092915050565b6000819050602082019050919050565b60006080830160008301518482036000860152610a8f8282610957565b9150506020830151610aa4602086018261099c565b506040830151610ab760408601826109ab565b5060608301518482036060860152610acf8282610957565b9150508091505092915050565b6000610ae88383610a72565b905092915050565b6000602082019050919050565b6000610b0882610a46565b610b128185610a51565b935083602082028501610b2485610a62565b8060005b85811015610b605784840389528151610b418582610adc565b9450610b4c83610af0565b925060208a01995050600181019050610b28565b50829750879550505050505092915050565b60006020820190508181036000830152610b8c8184610afd565b905092915050565b610b9d81610894565b82525050565b6000602082019050610bb86000830184610b94565b92915050565b600080fd5b600080fd5b7f4e487b7100000000000000000000000000000000000000000000000000000000600052604160045260246000fd5b610c0082610946565b810181811067ffffffffffffffff82111715610c1f57610c1e610bc8565b5b80604052505050565b6000610c32610880565b9050610c3e8282610bf7565b919050565b600067ffffffffffffffff821115610c5e57610c5d610bc8565b5b610c6782610946565b9050602081019050919050565b82818337600083830152505050565b6000610c96610c9184610c43565b610c28565b905082815260208101848484011115610cb257610cb1610bc3565b5b610cbd848285610c74565b509392505050565b600082601f830112610cda57610cd9610bbe565b5b8135610cea848260208601610c83565b91505092915050565b600080600060608486031215610d0c57610d0b61088a565b5b600084013567ffffffffffffffff811115610d2a57610d2961088f565b5b610d3686828701610cc5565b9350506020610d47868287016108b5565b925050604084013567ffffffffffffffff811115610d6857610d6761088f565b5b610d7486828701610cc5565b9150509250925092565b7f4e487b7100000000000000000000000000000000000000000000000000000000600052603260045260246000fd5b7f4e487b7100000000000000000000000000000000000000000000000000000000600052602260045260246000fd5b60006002820490506001821680610df457607f821691505b60208210811415610e0857610e07610dad565b5b50919050565b600082825260208201905092915050565b7f6f776e65722063616e206e6f742062757920626f6f6b00000000000000000000600082015250565b6000610e55601683610e0e565b9150610e6082610e1f565b602082019050919050565b60006020820190508181036000830152610e8481610e48565b9050919050565b7f4e487b7100000000000000000000000000000000000000000000000000000000600052601160045260246000fd5b6000610ec582610894565b9150610ed083610894565b9250817fffffffffffffffffffffffffffffffffffffffffffffffffffffffffffffffff0483118215151615610f0957610f08610e8b565b5b828202905092915050565b7f796f752073656e642077726f6e6720616d6f756e740000000000000000000000600082015250565b6000610f4a601583610e0e565b9150610f5582610f14565b602082019050919050565b60006020820190508181036000830152610f7981610f3d565b9050919050565b7f796f757220617265206e6f74206f776e65720000000000000000000000000000600082015250565b6000610fb6601283610e0e565b9150610fc182610f80565b602082019050919050565b60006020820190508181036000830152610fe581610fa9565b9050919050565b7f426f6f6b7320696e736572746564000000000000000000000000000000000000600082015250565b6000611022600e83610e0e565b915061102d82610fec565b602082019050919050565b6000602082019050818103600083015261105181611015565b905091905056fea264697066735822122086c466612add2d1bdc66d19cb2d5936c160698ab3f1d92c6c431b4689b3b472764736f6c634300080b0033",
  "immutableReferences": {},
  "source": "// SPDX-License-Identifier: GPL-3.0\npragma solidity ^0.8.0;\npragma experimental ABIEncoderV2;  \n\ncontract EBookShop{\n\n    struct NewBook{\n        string name;\n        bool status;\n        uint256 price;\n        string author;\n    }\n    \n    NewBook[] books;\n    address payable owner;\n    \n    constructor(){\n        owner=payable(msg.sender);\n    }\n\n    event Success(string msgs);\n\n    \n    function addBook(string memory _name, uint256 _price, string memory _author) public{\n        \n        require(msg.sender==owner,\"your are not owner\");\n        \n        NewBook memory newbook= NewBook({\n            name:_name,\n            price:_price,\n            status:false,\n            author:_author\n        });\n\n        books.push(newbook);\n        emit Success(\"Books inserted\");        \n    }\n\n    function getSpecificBook(uint _id) external view returns(NewBook memory){\n    \n       return books[_id];\n    }\n\n    function getAllBook() external view returns(NewBook[] memory){\n\n        return books;\n    }\n\n    function buyBook(uint _id) payable public{\n\n        require(msg.sender!=owner,\"owner can not buy book\");\n        \n        NewBook storage book= books[_id];\n        require(msg.value==(book.price*(10**18)),\"you send wrong amount\");\n        book.status=true;\n        owner.transfer(msg.value);\n       \n    }\n\n    function balanceOf() external view returns(uint) {\n        \n        return owner.balance;\n        \n    }\n}",
  "sourcePath": "/home/shubham/Desktop/BlockChain/EBookShop/contracts/EBookShop.sol",
  "compiler": {
    "name": "solc",
    "version": "0.8.11+commit.d7f03943.Emscripten.clang"
  },
  "schemaVersion": "3.4.3",
  "updatedAt": "2022-01-24T15:00:30.153Z",
  "networkType": "ethereum",
  "devdoc": {
    "kind": "dev",
    "methods": {},
    "version": 1
  },
  "userdoc": {
    "kind": "user",
    "methods": {},
    "version": 1
  }
}