{
  "contractName": "EBookToken",
  "abi": [
    {
      "inputs": [
        {
          "internalType": "uint256",
          "name": "tokenAmount",
          "type": "uint256"
        }
      ],
      "stateMutability": "nonpayable",
      "type": "constructor"
    },
    {
      "anonymous": false,
      "inputs": [
        {
          "indexed": true,
          "internalType": "address",
          "name": "owner",
          "type": "address"
        },
        {
          "indexed": true,
          "internalType": "address",
          "name": "spender",
          "type": "address"
        },
        {
          "indexed": false,
          "internalType": "uint256",
          "name": "value",
          "type": "uint256"
        }
      ],
      "name": "Approval",
      "type": "event"
    },
    {
      "anonymous": false,
      "inputs": [
        {
          "indexed": true,
          "internalType": "address",
          "name": "from",
          "type": "address"
        },
        {
          "indexed": true,
          "internalType": "address",
          "name": "to",
          "type": "address"
        },
        {
          "indexed": false,
          "internalType": "uint256",
          "name": "value",
          "type": "uint256"
        }
      ],
      "name": "Transfer",
      "type": "event"
    },
    {
      "inputs": [],
      "name": "admin",
      "outputs": [
        {
          "internalType": "address",
          "name": "",
          "type": "address"
        }
      ],
      "stateMutability": "view",
      "type": "function",
      "constant": true
    },
    {
      "inputs": [
        {
          "internalType": "address",
          "name": "owner",
          "type": "address"
        },
        {
          "internalType": "address",
          "name": "spender",
          "type": "address"
        }
      ],
      "name": "allowance",
      "outputs": [
        {
          "internalType": "uint256",
          "name": "",
          "type": "uint256"
        }
      ],
      "stateMutability": "view",
      "type": "function",
      "constant": true
    },
    {
      "inputs": [
        {
          "internalType": "address",
          "name": "spender",
          "type": "address"
        },
        {
          "internalType": "uint256",
          "name": "amount",
          "type": "uint256"
        }
      ],
      "name": "approve",
      "outputs": [
        {
          "internalType": "bool",
          "name": "",
          "type": "bool"
        }
      ],
      "stateMutability": "nonpayable",
      "type": "function"
    },
    {
      "inputs": [
        {
          "internalType": "address",
          "name": "account",
          "type": "address"
        }
      ],
      "name": "balanceOf",
      "outputs": [
        {
          "internalType": "uint256",
          "name": "",
          "type": "uint256"
        }
      ],
      "stateMutability": "view",
      "type": "function",
      "constant": true
    },
    {
      "inputs": [],
      "name": "decimals",
      "outputs": [
        {
          "internalType": "uint8",
          "name": "",
          "type": "uint8"
        }
      ],
      "stateMutability": "view",
      "type": "function",
      "constant": true
    },
    {
      "inputs": [
        {
          "internalType": "address",
          "name": "spender",
          "type": "address"
        },
        {
          "internalType": "uint256",
          "name": "subtractedValue",
          "type": "uint256"
        }
      ],
      "name": "decreaseAllowance",
      "outputs": [
        {
          "internalType": "bool",
          "name": "",
          "type": "bool"
        }
      ],
      "stateMutability": "nonpayable",
      "type": "function"
    },
    {
      "inputs": [
        {
          "internalType": "address",
          "name": "spender",
          "type": "address"
        },
        {
          "internalType": "uint256",
          "name": "addedValue",
          "type": "uint256"
        }
      ],
      "name": "increaseAllowance",
      "outputs": [
        {
          "internalType": "bool",
          "name": "",
          "type": "bool"
        }
      ],
      "stateMutability": "nonpayable",
      "type": "function"
    },
    {
      "inputs": [],
      "name": "name",
      "outputs": [
        {
          "internalType": "string",
          "name": "",
          "type": "string"
        }
      ],
      "stateMutability": "view",
      "type": "function",
      "constant": true
    },
    {
      "inputs": [],
      "name": "symbol",
      "outputs": [
        {
          "internalType": "string",
          "name": "",
          "type": "string"
        }
      ],
      "stateMutability": "view",
      "type": "function",
      "constant": true
    },
    {
      "inputs": [],
      "name": "totalSupply",
      "outputs": [
        {
          "internalType": "uint256",
          "name": "",
          "type": "uint256"
        }
      ],
      "stateMutability": "view",
      "type": "function",
      "constant": true
    },
    {
      "inputs": [
        {
          "internalType": "address",
          "name": "recipient",
          "type": "address"
        },
        {
          "internalType": "uint256",
          "name": "amount",
          "type": "uint256"
        }
      ],
      "name": "transfer",
      "outputs": [
        {
          "internalType": "bool",
          "name": "",
          "type": "bool"
        }
      ],
      "stateMutability": "nonpayable",
      "type": "function"
    },
    {
      "inputs": [
        {
          "internalType": "address",
          "name": "sender",
          "type": "address"
        },
        {
          "internalType": "address",
          "name": "recipient",
          "type": "address"
        },
        {
          "internalType": "uint256",
          "name": "amount",
          "type": "uint256"
        }
      ],
      "name": "transferFrom",
      "outputs": [
        {
          "internalType": "bool",
          "name": "",
          "type": "bool"
        }
      ],
      "stateMutability": "nonpayable",
      "type": "function"
    },
    {
      "inputs": [
        {
          "internalType": "uint256",
          "name": "amount",
          "type": "uint256"
        }
      ],
      "name": "buyToken",
      "outputs": [],
      "stateMutability": "nonpayable",
      "type": "function"
    }
  ],
  "bytecode": "0x60806040523480156200001157600080fd5b5060405162001c8538038062001c858339818101604052810190620000379190620003d7565b6040518060400160405280600c81526020017f452d426f6f6b20546f6b656e00000000000000000000000000000000000000008152506040518060400160405280600381526020017f45425400000000000000000000000000000000000000000000000000000000008152508160039080519060200190620000bb929190620002e7565b508060049080519060200190620000d4929190620002e7565b5050506200011333620000ec6200015b60201b60201c565b600a620000fa919062000599565b83620001079190620005ea565b6200016460201b60201c565b33600560006101000a81548173ffffffffffffffffffffffffffffffffffffffff021916908373ffffffffffffffffffffffffffffffffffffffff16021790555050620007be565b60006012905090565b600073ffffffffffffffffffffffffffffffffffffffff168273ffffffffffffffffffffffffffffffffffffffff161415620001d7576040517f08c379a0000000000000000000000000000000000000000000000000000000008152600401620001ce90620006ac565b60405180910390fd5b620001eb60008383620002dd60201b60201c565b8060026000828254620001ff9190620006ce565b92505081905550806000808473ffffffffffffffffffffffffffffffffffffffff1673ffffffffffffffffffffffffffffffffffffffff1681526020019081526020016000206000828254620002569190620006ce565b925050819055508173ffffffffffffffffffffffffffffffffffffffff16600073ffffffffffffffffffffffffffffffffffffffff167fddf252ad1be2c89b69c2b068fc378daa952ba7f163c4a11628f55a4df523b3ef83604051620002bd91906200073c565b60405180910390a3620002d960008383620002e260201b60201c565b5050565b505050565b505050565b828054620002f59062000788565b90600052602060002090601f01602090048101928262000319576000855562000365565b82601f106200033457805160ff191683800117855562000365565b8280016001018555821562000365579182015b828111156200036457825182559160200191906001019062000347565b5b50905062000374919062000378565b5090565b5b808211156200039357600081600090555060010162000379565b5090565b600080fd5b6000819050919050565b620003b1816200039c565b8114620003bd57600080fd5b50565b600081519050620003d181620003a6565b92915050565b600060208284031215620003f057620003ef62000397565b5b60006200040084828501620003c0565b91505092915050565b7f4e487b7100000000000000000000000000000000000000000000000000000000600052601160045260246000fd5b60008160011c9050919050565b6000808291508390505b600185111562000497578086048111156200046f576200046e62000409565b5b60018516156200047f5780820291505b80810290506200048f8562000438565b94506200044f565b94509492505050565b600082620004b2576001905062000585565b81620004c2576000905062000585565b8160018114620004db5760028114620004e6576200051c565b600191505062000585565b60ff841115620004fb57620004fa62000409565b5b8360020a91508482111562000515576200051462000409565b5b5062000585565b5060208310610133831016604e8410600b8410161715620005565782820a90508381111562000550576200054f62000409565b5b62000585565b62000565848484600162000445565b925090508184048111156200057f576200057e62000409565b5b81810290505b9392505050565b600060ff82169050919050565b6000620005a6826200039c565b9150620005b3836200058c565b9250620005e27fffffffffffffffffffffffffffffffffffffffffffffffffffffffffffffffff8484620004a0565b905092915050565b6000620005f7826200039c565b915062000604836200039c565b9250817fffffffffffffffffffffffffffffffffffffffffffffffffffffffffffffffff048311821515161562000640576200063f62000409565b5b828202905092915050565b600082825260208201905092915050565b7f45524332303a206d696e7420746f20746865207a65726f206164647265737300600082015250565b600062000694601f836200064b565b9150620006a1826200065c565b602082019050919050565b60006020820190508181036000830152620006c78162000685565b9050919050565b6000620006db826200039c565b9150620006e8836200039c565b9250827fffffffffffffffffffffffffffffffffffffffffffffffffffffffffffffffff0382111562000720576200071f62000409565b5b828201905092915050565b62000736816200039c565b82525050565b60006020820190506200075360008301846200072b565b92915050565b7f4e487b7100000000000000000000000000000000000000000000000000000000600052602260045260246000fd5b60006002820490506001821680620007a157607f821691505b60208210811415620007b857620007b762000759565b5b50919050565b6114b780620007ce6000396000f3fe608060405234801561001057600080fd5b50600436106100cf5760003560e01c8063395093511161008c578063a457c2d711610066578063a457c2d714610228578063a9059cbb14610258578063dd62ed3e14610288578063f851a440146102b8576100cf565b806339509351146101aa57806370a08231146101da57806395d89b411461020a576100cf565b806306fdde03146100d4578063095ea7b3146100f257806318160ddd1461012257806323b872dd146101405780632d296bf114610170578063313ce5671461018c575b600080fd5b6100dc6102d6565b6040516100e99190610cf4565b60405180910390f35b61010c60048036038101906101079190610daf565b610368565b6040516101199190610e0a565b60405180910390f35b61012a610386565b6040516101379190610e34565b60405180910390f35b61015a60048036038101906101559190610e4f565b610390565b6040516101679190610e0a565b60405180910390f35b61018a60048036038101906101859190610ea2565b610488565b005b6101946104b8565b6040516101a19190610eeb565b60405180910390f35b6101c460048036038101906101bf9190610daf565b6104c1565b6040516101d19190610e0a565b60405180910390f35b6101f460048036038101906101ef9190610f06565b61056d565b6040516102019190610e34565b60405180910390f35b6102126105b5565b60405161021f9190610cf4565b60405180910390f35b610242600480360381019061023d9190610daf565b610647565b60405161024f9190610e0a565b60405180910390f35b610272600480360381019061026d9190610daf565b610732565b60405161027f9190610e0a565b60405180910390f35b6102a2600480360381019061029d9190610f33565b610750565b6040516102af9190610e34565b60405180910390f35b6102c06107d7565b6040516102cd9190610f82565b60405180910390f35b6060600380546102e590610fcc565b80601f016020809104026020016040519081016040528092919081815260200182805461031190610fcc565b801561035e5780601f106103335761010080835404028352916020019161035e565b820191906000526020600020905b81548152906001019060200180831161034157829003601f168201915b5050505050905090565b600061037c6103756107fd565b8484610805565b6001905092915050565b6000600254905090565b600061039d8484846109d0565b6000600160008673ffffffffffffffffffffffffffffffffffffffff1673ffffffffffffffffffffffffffffffffffffffff16815260200190815260200160002060006103e86107fd565b73ffffffffffffffffffffffffffffffffffffffff1673ffffffffffffffffffffffffffffffffffffffff16815260200190815260200160002054905082811015610468576040517f08c379a000000000000000000000000000000000000000000000000000000000815260040161045f90611070565b60405180910390fd5b61047c856104746107fd565b858403610805565b60019150509392505050565b6104b5600560009054906101000a900473ffffffffffffffffffffffffffffffffffffffff1633836109d0565b50565b60006012905090565b60006105636104ce6107fd565b8484600160006104dc6107fd565b73ffffffffffffffffffffffffffffffffffffffff1673ffffffffffffffffffffffffffffffffffffffff16815260200190815260200160002060008873ffffffffffffffffffffffffffffffffffffffff1673ffffffffffffffffffffffffffffffffffffffff1681526020019081526020016000205461055e91906110bf565b610805565b6001905092915050565b60008060008373ffffffffffffffffffffffffffffffffffffffff1673ffffffffffffffffffffffffffffffffffffffff168152602001908152602001600020549050919050565b6060600480546105c490610fcc565b80601f01602080910402602001604051908101604052809291908181526020018280546105f090610fcc565b801561063d5780601f106106125761010080835404028352916020019161063d565b820191906000526020600020905b81548152906001019060200180831161062057829003601f168201915b5050505050905090565b600080600160006106566107fd565b73ffffffffffffffffffffffffffffffffffffffff1673ffffffffffffffffffffffffffffffffffffffff16815260200190815260200160002060008573ffffffffffffffffffffffffffffffffffffffff1673ffffffffffffffffffffffffffffffffffffffff16815260200190815260200160002054905082811015610713576040517f08c379a000000000000000000000000000000000000000000000000000000000815260040161070a90611187565b60405180910390fd5b61072761071e6107fd565b85858403610805565b600191505092915050565b600061074661073f6107fd565b84846109d0565b6001905092915050565b6000600160008473ffffffffffffffffffffffffffffffffffffffff1673ffffffffffffffffffffffffffffffffffffffff16815260200190815260200160002060008373ffffffffffffffffffffffffffffffffffffffff1673ffffffffffffffffffffffffffffffffffffffff16815260200190815260200160002054905092915050565b600560009054906101000a900473ffffffffffffffffffffffffffffffffffffffff1681565b600033905090565b600073ffffffffffffffffffffffffffffffffffffffff168373ffffffffffffffffffffffffffffffffffffffff161415610875576040517f08c379a000000000000000000000000000000000000000000000000000000000815260040161086c90611219565b60405180910390fd5b600073ffffffffffffffffffffffffffffffffffffffff168273ffffffffffffffffffffffffffffffffffffffff1614156108e5576040517f08c379a00000000000000000000000000000000000000000000000000000000081526004016108dc906112ab565b60405180910390fd5b80600160008573ffffffffffffffffffffffffffffffffffffffff1673ffffffffffffffffffffffffffffffffffffffff16815260200190815260200160002060008473ffffffffffffffffffffffffffffffffffffffff1673ffffffffffffffffffffffffffffffffffffffff168152602001908152602001600020819055508173ffffffffffffffffffffffffffffffffffffffff168373ffffffffffffffffffffffffffffffffffffffff167f8c5be1e5ebec7d5bd14f71427d1e84f3dd0314c0f7b2291e5b200ac8c7c3b925836040516109c39190610e34565b60405180910390a3505050565b600073ffffffffffffffffffffffffffffffffffffffff168373ffffffffffffffffffffffffffffffffffffffff161415610a40576040517f08c379a0000000000000000000000000000000000000000000000000000000008152600401610a379061133d565b60405180910390fd5b600073ffffffffffffffffffffffffffffffffffffffff168273ffffffffffffffffffffffffffffffffffffffff161415610ab0576040517f08c379a0000000000000000000000000000000000000000000000000000000008152600401610aa7906113cf565b60405180910390fd5b610abb838383610c51565b60008060008573ffffffffffffffffffffffffffffffffffffffff1673ffffffffffffffffffffffffffffffffffffffff16815260200190815260200160002054905081811015610b41576040517f08c379a0000000000000000000000000000000000000000000000000000000008152600401610b3890611461565b60405180910390fd5b8181036000808673ffffffffffffffffffffffffffffffffffffffff1673ffffffffffffffffffffffffffffffffffffffff16815260200190815260200160002081905550816000808573ffffffffffffffffffffffffffffffffffffffff1673ffffffffffffffffffffffffffffffffffffffff1681526020019081526020016000206000828254610bd491906110bf565b925050819055508273ffffffffffffffffffffffffffffffffffffffff168473ffffffffffffffffffffffffffffffffffffffff167fddf252ad1be2c89b69c2b068fc378daa952ba7f163c4a11628f55a4df523b3ef84604051610c389190610e34565b60405180910390a3610c4b848484610c56565b50505050565b505050565b505050565b600081519050919050565b600082825260208201905092915050565b60005b83811015610c95578082015181840152602081019050610c7a565b83811115610ca4576000848401525b50505050565b6000601f19601f8301169050919050565b6000610cc682610c5b565b610cd08185610c66565b9350610ce0818560208601610c77565b610ce981610caa565b840191505092915050565b60006020820190508181036000830152610d0e8184610cbb565b905092915050565b600080fd5b600073ffffffffffffffffffffffffffffffffffffffff82169050919050565b6000610d4682610d1b565b9050919050565b610d5681610d3b565b8114610d6157600080fd5b50565b600081359050610d7381610d4d565b92915050565b6000819050919050565b610d8c81610d79565b8114610d9757600080fd5b50565b600081359050610da981610d83565b92915050565b60008060408385031215610dc657610dc5610d16565b5b6000610dd485828601610d64565b9250506020610de585828601610d9a565b9150509250929050565b60008115159050919050565b610e0481610def565b82525050565b6000602082019050610e1f6000830184610dfb565b92915050565b610e2e81610d79565b82525050565b6000602082019050610e496000830184610e25565b92915050565b600080600060608486031215610e6857610e67610d16565b5b6000610e7686828701610d64565b9350506020610e8786828701610d64565b9250506040610e9886828701610d9a565b9150509250925092565b600060208284031215610eb857610eb7610d16565b5b6000610ec684828501610d9a565b91505092915050565b600060ff82169050919050565b610ee581610ecf565b82525050565b6000602082019050610f006000830184610edc565b92915050565b600060208284031215610f1c57610f1b610d16565b5b6000610f2a84828501610d64565b91505092915050565b60008060408385031215610f4a57610f49610d16565b5b6000610f5885828601610d64565b9250506020610f6985828601610d64565b9150509250929050565b610f7c81610d3b565b82525050565b6000602082019050610f976000830184610f73565b92915050565b7f4e487b7100000000000000000000000000000000000000000000000000000000600052602260045260246000fd5b60006002820490506001821680610fe457607f821691505b60208210811415610ff857610ff7610f9d565b5b50919050565b7f45524332303a207472616e7366657220616d6f756e742065786365656473206160008201527f6c6c6f77616e6365000000000000000000000000000000000000000000000000602082015250565b600061105a602883610c66565b915061106582610ffe565b604082019050919050565b600060208201905081810360008301526110898161104d565b9050919050565b7f4e487b7100000000000000000000000000000000000000000000000000000000600052601160045260246000fd5b60006110ca82610d79565b91506110d583610d79565b9250827fffffffffffffffffffffffffffffffffffffffffffffffffffffffffffffffff0382111561110a57611109611090565b5b828201905092915050565b7f45524332303a2064656372656173656420616c6c6f77616e63652062656c6f7760008201527f207a65726f000000000000000000000000000000000000000000000000000000602082015250565b6000611171602583610c66565b915061117c82611115565b604082019050919050565b600060208201905081810360008301526111a081611164565b9050919050565b7f45524332303a20617070726f76652066726f6d20746865207a65726f2061646460008201527f7265737300000000000000000000000000000000000000000000000000000000602082015250565b6000611203602483610c66565b915061120e826111a7565b604082019050919050565b60006020820190508181036000830152611232816111f6565b9050919050565b7f45524332303a20617070726f766520746f20746865207a65726f20616464726560008201527f7373000000000000000000000000000000000000000000000000000000000000602082015250565b6000611295602283610c66565b91506112a082611239565b604082019050919050565b600060208201905081810360008301526112c481611288565b9050919050565b7f45524332303a207472616e736665722066726f6d20746865207a65726f20616460008201527f6472657373000000000000000000000000000000000000000000000000000000602082015250565b6000611327602583610c66565b9150611332826112cb565b604082019050919050565b600060208201905081810360008301526113568161131a565b9050919050565b7f45524332303a207472616e7366657220746f20746865207a65726f206164647260008201527f6573730000000000000000000000000000000000000000000000000000000000602082015250565b60006113b9602383610c66565b91506113c48261135d565b604082019050919050565b600060208201905081810360008301526113e8816113ac565b9050919050565b7f45524332303a207472616e7366657220616d6f756e742065786365656473206260008201527f616c616e63650000000000000000000000000000000000000000000000000000602082015250565b600061144b602683610c66565b9150611456826113ef565b604082019050919050565b6000602082019050818103600083015261147a8161143e565b905091905056fea2646970667358221220fe6d22cfc61e5b0ea6c487644d5c0a866ea55142337192a546743a93d5752ebf64736f6c634300080b0033",
  "immutableReferences": {},
  "source": "pragma solidity ^0.8.0;\nimport \"@openzeppelin/contracts/token/ERC20/ERC20.sol\";\n\ncontract EBookToken is ERC20{\n\n    address public admin;\n    \n    constructor(uint256 tokenAmount)ERC20('E-Book Token','EBT'){\n        _mint(msg.sender, tokenAmount* (10 ** decimals()));\n        admin= msg.sender;\n    }\n\n    function buyToken(uint256 amount)external{\n        _transfer(admin,msg.sender,amount);\n    }    \n}",
  "sourcePath": "/home/shubham/Desktop/BlockChain/EBookShop/contracts/EBookToken.sol",
  "compiler": {
    "name": "solc",
    "version": "0.8.11+commit.d7f03943.Emscripten.clang"
  },
  "schemaVersion": "3.4.3",
  "updatedAt": "2022-01-12T15:47:57.368Z",
  "networkType": "ethereum",
  "devdoc": {
    "kind": "dev",
    "methods": {
      "allowance(address,address)": {
        "details": "See {IERC20-allowance}."
      },
      "approve(address,uint256)": {
        "details": "See {IERC20-approve}. Requirements: - `spender` cannot be the zero address."
      },
      "balanceOf(address)": {
        "details": "See {IERC20-balanceOf}."
      },
      "decimals()": {
        "details": "Returns the number of decimals used to get its user representation. For example, if `decimals` equals `2`, a balance of `505` tokens should be displayed to a user as `5.05` (`505 / 10 ** 2`). Tokens usually opt for a value of 18, imitating the relationship between Ether and Wei. This is the value {ERC20} uses, unless this function is overridden; NOTE: This information is only used for _display_ purposes: it in no way affects any of the arithmetic of the contract, including {IERC20-balanceOf} and {IERC20-transfer}."
      },
      "decreaseAllowance(address,uint256)": {
        "details": "Atomically decreases the allowance granted to `spender` by the caller. This is an alternative to {approve} that can be used as a mitigation for problems described in {IERC20-approve}. Emits an {Approval} event indicating the updated allowance. Requirements: - `spender` cannot be the zero address. - `spender` must have allowance for the caller of at least `subtractedValue`."
      },
      "increaseAllowance(address,uint256)": {
        "details": "Atomically increases the allowance granted to `spender` by the caller. This is an alternative to {approve} that can be used as a mitigation for problems described in {IERC20-approve}. Emits an {Approval} event indicating the updated allowance. Requirements: - `spender` cannot be the zero address."
      },
      "name()": {
        "details": "Returns the name of the token."
      },
      "symbol()": {
        "details": "Returns the symbol of the token, usually a shorter version of the name."
      },
      "totalSupply()": {
        "details": "See {IERC20-totalSupply}."
      },
      "transfer(address,uint256)": {
        "details": "See {IERC20-transfer}. Requirements: - `recipient` cannot be the zero address. - the caller must have a balance of at least `amount`."
      },
      "transferFrom(address,address,uint256)": {
        "details": "See {IERC20-transferFrom}. Emits an {Approval} event indicating the updated allowance. This is not required by the EIP. See the note at the beginning of {ERC20}. Requirements: - `sender` and `recipient` cannot be the zero address. - `sender` must have a balance of at least `amount`. - the caller must have allowance for ``sender``'s tokens of at least `amount`."
      }
    },
    "version": 1
  },
  "userdoc": {
    "kind": "user",
    "methods": {},
    "version": 1
  }
}