{
  "contractName": "EBook",
  "abi": [
    {
      "inputs": [],
      "payable": false,
      "stateMutability": "nonpayable",
      "type": "constructor"
    },
    {
      "anonymous": false,
      "inputs": [
        {
          "indexed": false,
          "internalType": "string",
          "name": "msgs",
          "type": "string"
        }
      ],
      "name": "Success",
      "type": "event"
    },
    {
      "constant": true,
      "inputs": [],
      "name": "owner",
      "outputs": [
        {
          "internalType": "address",
          "name": "",
          "type": "address"
        }
      ],
      "payable": false,
      "stateMutability": "view",
      "type": "function"
    },
    {
      "constant": false,
      "inputs": [
        {
          "internalType": "uint256",
          "name": "_id",
          "type": "uint256"
        },
        {
          "internalType": "string",
          "name": "_bookName",
          "type": "string"
        }
      ],
      "name": "addBook",
      "outputs": [],
      "payable": false,
      "stateMutability": "nonpayable",
      "type": "function"
    },
    {
      "constant": true,
      "inputs": [
        {
          "internalType": "uint256",
          "name": "_id",
          "type": "uint256"
        }
      ],
      "name": "getSpecificBook",
      "outputs": [
        {
          "components": [
            {
              "internalType": "uint256",
              "name": "id",
              "type": "uint256"
            },
            {
              "internalType": "string",
              "name": "bookName",
              "type": "string"
            },
            {
              "internalType": "string",
              "name": "status",
              "type": "string"
            }
          ],
          "internalType": "struct EBook.Books",
          "name": "",
          "type": "tuple"
        }
      ],
      "payable": false,
      "stateMutability": "view",
      "type": "function"
    },
    {
      "constant": true,
      "inputs": [],
      "name": "getAllBook",
      "outputs": [
        {
          "components": [
            {
              "internalType": "uint256",
              "name": "id",
              "type": "uint256"
            },
            {
              "internalType": "string",
              "name": "bookName",
              "type": "string"
            },
            {
              "internalType": "string",
              "name": "status",
              "type": "string"
            }
          ],
          "internalType": "struct EBook.Books[]",
          "name": "",
          "type": "tuple[]"
        }
      ],
      "payable": false,
      "stateMutability": "view",
      "type": "function"
    },
    {
      "constant": false,
      "inputs": [
        {
          "internalType": "uint256",
          "name": "_id",
          "type": "uint256"
        },
        {
          "internalType": "string",
          "name": "_status",
          "type": "string"
        },
        {
          "internalType": "address payable",
          "name": "reciver",
          "type": "address"
        }
      ],
      "name": "updateBookStatus",
      "outputs": [],
      "payable": true,
      "stateMutability": "payable",
      "type": "function"
    }
  ],
  "bytecode": "0x608060405234801561001057600080fd5b50336000806101000a81548173ffffffffffffffffffffffffffffffffffffffff021916908373ffffffffffffffffffffffffffffffffffffffff160217905550610dba806100606000396000f3fe60806040526004361061004a5760003560e01c8063070cbe2a1461004f5780634428fef9146100785780635b57a37d146100b55780635ef935fa146100d15780638da5cb5b146100fc575b600080fd5b34801561005b57600080fd5b5061007660048036036100719190810190610881565b610127565b005b34801561008457600080fd5b5061009f600480360361009a9190810190610858565b6102b3565b6040516100ac9190610bc7565b60405180910390f35b6100cf60048036036100ca91908101906108d5565b61043c565b005b3480156100dd57600080fd5b506100e66104c2565b6040516100f39190610b65565b60405180910390f35b34801561010857600080fd5b5061011161066f565b60405161011e9190610b4a565b60405180910390f35b6000809054906101000a900473ffffffffffffffffffffffffffffffffffffffff1673ffffffffffffffffffffffffffffffffffffffff163373ffffffffffffffffffffffffffffffffffffffff16146101b6576040517f08c379a00000000000000000000000000000000000000000000000000000000081526004016101ad90610ba7565b60405180910390fd5b600160405180606001604052808481526020018381526020016040518060400160405280600881526020017f6e6f7420736f6c6400000000000000000000000000000000000000000000000081525081525090806001815401808255809150509060018203906000526020600020906003020160009091929091909150600082015181600001556020820151816001019080519060200190610259929190610694565b506040820151816002019080519060200190610276929190610694565b505050507f166b96a382dc3abc86ba052ca9c020cfd7022d2d3059e868918a3d20779e41cc6040516102a790610b87565b60405180910390a15050565b6102bb610714565b6000600183815481106102ca57fe5b906000526020600020906003020190508060405180606001604052908160008201548152602001600182018054600181600116156101000203166002900480601f0160208091040260200160405190810160405280929190818152602001828054600181600116156101000203166002900480156103895780601f1061035e57610100808354040283529160200191610389565b820191906000526020600020905b81548152906001019060200180831161036c57829003601f168201915b50505050508152602001600282018054600181600116156101000203166002900480601f01602080910402602001604051908101604052809291908181526020018280546001816001161561010002031660029004801561042b5780601f106104005761010080835404028352916020019161042b565b820191906000526020600020905b81548152906001019060200180831161040e57829003601f168201915b505050505081525050915050919050565b60006001848154811061044b57fe5b9060005260206000209060030201905082816002019080519060200190610473929190610735565b508173ffffffffffffffffffffffffffffffffffffffff166108fc600a9081150290604051600060405180830381858888f193505050501580156104bb573d6000803e3d6000fd5b5050505050565b60606001805480602002602001604051908101604052809291908181526020016000905b82821015610666578382906000526020600020906003020160405180606001604052908160008201548152602001600182018054600181600116156101000203166002900480601f0160208091040260200160405190810160405280929190818152602001828054600181600116156101000203166002900480156105ac5780601f10610581576101008083540402835291602001916105ac565b820191906000526020600020905b81548152906001019060200180831161058f57829003601f168201915b50505050508152602001600282018054600181600116156101000203166002900480601f01602080910402602001604051908101604052809291908181526020018280546001816001161561010002031660029004801561064e5780601f106106235761010080835404028352916020019161064e565b820191906000526020600020905b81548152906001019060200180831161063157829003601f168201915b505050505081525050815260200190600101906104e6565b50505050905090565b6000809054906101000a900473ffffffffffffffffffffffffffffffffffffffff1681565b828054600181600116156101000203166002900490600052602060002090601f016020900481019282601f106106d557805160ff1916838001178555610703565b82800160010185558215610703579182015b828111156107025782518255916020019190600101906106e7565b5b50905061071091906107b5565b5090565b60405180606001604052806000815260200160608152602001606081525090565b828054600181600116156101000203166002900490600052602060002090601f016020900481019282601f1061077657805160ff19168380011785556107a4565b828001600101855582156107a4579182015b828111156107a3578251825591602001919060010190610788565b5b5090506107b191906107b5565b5090565b6107d791905b808211156107d35760008160009055506001016107bb565b5090565b90565b6000813590506107e981610d49565b92915050565b600082601f83011261080057600080fd5b813561081361080e82610c16565b610be9565b9150808252602083016020830185838301111561082f57600080fd5b61083a838284610cf6565b50505092915050565b60008135905061085281610d60565b92915050565b60006020828403121561086a57600080fd5b600061087884828501610843565b91505092915050565b6000806040838503121561089457600080fd5b60006108a285828601610843565b925050602083013567ffffffffffffffff8111156108bf57600080fd5b6108cb858286016107ef565b9150509250929050565b6000806000606084860312156108ea57600080fd5b60006108f886828701610843565b935050602084013567ffffffffffffffff81111561091557600080fd5b610921868287016107ef565b9250506040610932868287016107da565b9150509250925092565b60006109488383610ae4565b905092915050565b61095981610ca8565b82525050565b600061096a82610c52565b6109748185610c75565b93508360208202850161098685610c42565b8060005b858110156109c257848403895281516109a3858261093c565b94506109ae83610c68565b925060208a0199505060018101905061098a565b50829750879550505050505092915050565b60006109df82610c5d565b6109e98185610c86565b93506109f9818560208601610d05565b610a0281610d38565b840191505092915050565b6000610a1a600e83610c97565b91507f426f6f6b7320696e7365727465640000000000000000000000000000000000006000830152602082019050919050565b6000610a5a601183610c97565b91507f796f7520617265206e6f74206f776e65720000000000000000000000000000006000830152602082019050919050565b6000606083016000830151610aa56000860182610b3b565b5060208301518482036020860152610abd82826109d4565b91505060408301518482036040860152610ad782826109d4565b9150508091505092915050565b6000606083016000830151610afc6000860182610b3b565b5060208301518482036020860152610b1482826109d4565b91505060408301518482036040860152610b2e82826109d4565b9150508091505092915050565b610b4481610cec565b82525050565b6000602082019050610b5f6000830184610950565b92915050565b60006020820190508181036000830152610b7f818461095f565b905092915050565b60006020820190508181036000830152610ba081610a0d565b9050919050565b60006020820190508181036000830152610bc081610a4d565b9050919050565b60006020820190508181036000830152610be18184610a8d565b905092915050565b6000604051905081810181811067ffffffffffffffff82111715610c0c57600080fd5b8060405250919050565b600067ffffffffffffffff821115610c2d57600080fd5b601f19601f8301169050602081019050919050565b6000819050602082019050919050565b600081519050919050565b600081519050919050565b6000602082019050919050565b600082825260208201905092915050565b600082825260208201905092915050565b600082825260208201905092915050565b6000610cb382610ccc565b9050919050565b6000610cc582610ccc565b9050919050565b600073ffffffffffffffffffffffffffffffffffffffff82169050919050565b6000819050919050565b82818337600083830152505050565b60005b83811015610d23578082015181840152602081019050610d08565b83811115610d32576000848401525b50505050565b6000601f19601f8301169050919050565b610d5281610cba565b8114610d5d57600080fd5b50565b610d6981610cec565b8114610d7457600080fd5b5056fea365627a7a7231582076904676cae7ea68d0ab0ecf837e10dcc82a287dce98a2558dd23451f62d37ab6c6578706572696d656e74616cf564736f6c63430005100040",
  "source": "// SPDX-License-Identifier: GPL-3.0\npragma solidity >=0.4.21 <0.7.0;\npragma experimental ABIEncoderV2;  \n\ncontract EBook{\n\n    struct Books{\n        uint id;\n        string bookName;\n        string status;\n    }\n    address public owner;\n    \n    constructor() public{\n        owner=msg.sender;\n    }\n\n    Books[] books;\n    \n    event Success(string msgs);\n\n    function addBook(uint _id, string memory _bookName) public{\n        // mainly used to restriction based on user\n        require(msg.sender==owner,\"you are not owner\");\n\n        books.push(Books(_id,_bookName,\"not sold\"));\n\n        // event is used to send msg to log which will be accessed by react\n        emit Success(\"Books inserted\");        \n    }\n\n    function getSpecificBook(uint _id) external view returns(Books memory){\n\n        Books storage book= books[_id];\n\n        return book;\n\n    }\n\n    function getAllBook() external view returns(Books[] memory){\n\n        return books;\n\n    }\n\n    function updateBookStatus(uint _id, string memory _status, address payable reciver) payable public{\n\n        Books storage book= books[_id];\n        book.status=_status;\n        reciver.transfer(10);\n\n    }\n\n}\n\n",
  "sourcePath": "/home/shubham/Desktop/BlockChain/EBookShop/contracts/EBook.sol",
  "compiler": {
    "name": "solc",
    "version": "0.5.16+commit.9c3226ce.Emscripten.clang"
  },
  "schemaVersion": "3.3.1",
  "updatedAt": "2021-12-31T06:27:03.658Z",
  "networkType": "ethereum",
  "devdoc": {
    "methods": {}
  },
  "userdoc": {
    "methods": {}
  }
}