{
  "contractName": "EBook",
  "abi": [
    {
      "inputs": [],
      "payable": false,
      "stateMutability": "nonpayable",
      "type": "constructor"
    },
    {
      "anonymous": false,
      "inputs": [
        {
          "indexed": false,
          "internalType": "string",
          "name": "msgs",
          "type": "string"
        }
      ],
      "name": "Success",
      "type": "event"
    },
    {
      "constant": true,
      "inputs": [],
      "name": "owner",
      "outputs": [
        {
          "internalType": "address",
          "name": "",
          "type": "address"
        }
      ],
      "payable": false,
      "stateMutability": "view",
      "type": "function"
    },
    {
      "constant": false,
      "inputs": [
        {
          "internalType": "uint256",
          "name": "_id",
          "type": "uint256"
        },
        {
          "internalType": "string",
          "name": "_bookName",
          "type": "string"
        }
      ],
      "name": "addBook",
      "outputs": [],
      "payable": false,
      "stateMutability": "nonpayable",
      "type": "function"
    },
    {
      "constant": true,
      "inputs": [
        {
          "internalType": "uint256",
          "name": "_id",
          "type": "uint256"
        }
      ],
      "name": "getSpecificBook",
      "outputs": [
        {
          "components": [
            {
              "internalType": "uint256",
              "name": "id",
              "type": "uint256"
            },
            {
              "internalType": "string",
              "name": "bookName",
              "type": "string"
            },
            {
              "internalType": "string",
              "name": "status",
              "type": "string"
            }
          ],
          "internalType": "struct EBook.Books",
          "name": "",
          "type": "tuple"
        }
      ],
      "payable": false,
      "stateMutability": "view",
      "type": "function"
    },
    {
      "constant": true,
      "inputs": [],
      "name": "getAllBook",
      "outputs": [
        {
          "components": [
            {
              "internalType": "uint256",
              "name": "id",
              "type": "uint256"
            },
            {
              "internalType": "string",
              "name": "bookName",
              "type": "string"
            },
            {
              "internalType": "string",
              "name": "status",
              "type": "string"
            }
          ],
          "internalType": "struct EBook.Books[]",
          "name": "",
          "type": "tuple[]"
        }
      ],
      "payable": false,
      "stateMutability": "view",
      "type": "function"
    },
    {
      "constant": false,
      "inputs": [
        {
          "internalType": "uint256",
          "name": "_id",
          "type": "uint256"
        },
        {
          "internalType": "string",
          "name": "_status",
          "type": "string"
        }
      ],
      "name": "updateBookStatus",
      "outputs": [],
      "payable": true,
      "stateMutability": "payable",
      "type": "function"
    }
  ],
  "bytecode": "0x608060405234801561001057600080fd5b50336000806101000a81548173ffffffffffffffffffffffffffffffffffffffff021916908373ffffffffffffffffffffffffffffffffffffffff160217905550610ccc806100606000396000f3fe60806040526004361061004a5760003560e01c8063070cbe2a1461004f5780630be26fd9146100785780634428fef9146100945780635ef935fa146100d15780638da5cb5b146100fc575b600080fd5b34801561005b57600080fd5b5061007660048036036100719190810190610823565b610127565b005b610092600480360361008d9190810190610823565b6102b3565b005b3480156100a057600080fd5b506100bb60048036036100b691908101906107fa565b6102f0565b6040516100c89190610b02565b60405180910390f35b3480156100dd57600080fd5b506100e6610479565b6040516100f39190610aa0565b60405180910390f35b34801561010857600080fd5b50610111610626565b60405161011e9190610a85565b60405180910390f35b6000809054906101000a900473ffffffffffffffffffffffffffffffffffffffff1673ffffffffffffffffffffffffffffffffffffffff163373ffffffffffffffffffffffffffffffffffffffff16146101b6576040517f08c379a00000000000000000000000000000000000000000000000000000000081526004016101ad90610ae2565b60405180910390fd5b600160405180606001604052808481526020018381526020016040518060400160405280600881526020017f6e6f7420736f6c640000000000000000000000000000000000000000000000008152508152509080600181540180825580915050906001820390600052602060002090600302016000909192909190915060008201518160000155602082015181600101908051906020019061025992919061064b565b50604082015181600201908051906020019061027692919061064b565b505050507f166b96a382dc3abc86ba052ca9c020cfd7022d2d3059e868918a3d20779e41cc6040516102a790610ac2565b60405180910390a15050565b6000600183815481106102c257fe5b90600052602060002090600302019050818160020190805190602001906102ea9291906106cb565b50505050565b6102f861074b565b60006001838154811061030757fe5b906000526020600020906003020190508060405180606001604052908160008201548152602001600182018054600181600116156101000203166002900480601f0160208091040260200160405190810160405280929190818152602001828054600181600116156101000203166002900480156103c65780601f1061039b576101008083540402835291602001916103c6565b820191906000526020600020905b8154815290600101906020018083116103a957829003601f168201915b50505050508152602001600282018054600181600116156101000203166002900480601f0160208091040260200160405190810160405280929190818152602001828054600181600116156101000203166002900480156104685780601f1061043d57610100808354040283529160200191610468565b820191906000526020600020905b81548152906001019060200180831161044b57829003601f168201915b505050505081525050915050919050565b60606001805480602002602001604051908101604052809291908181526020016000905b8282101561061d578382906000526020600020906003020160405180606001604052908160008201548152602001600182018054600181600116156101000203166002900480601f0160208091040260200160405190810160405280929190818152602001828054600181600116156101000203166002900480156105635780601f1061053857610100808354040283529160200191610563565b820191906000526020600020905b81548152906001019060200180831161054657829003601f168201915b50505050508152602001600282018054600181600116156101000203166002900480601f0160208091040260200160405190810160405280929190818152602001828054600181600116156101000203166002900480156106055780601f106105da57610100808354040283529160200191610605565b820191906000526020600020905b8154815290600101906020018083116105e857829003601f168201915b5050505050815250508152602001906001019061049d565b50505050905090565b6000809054906101000a900473ffffffffffffffffffffffffffffffffffffffff1681565b828054600181600116156101000203166002900490600052602060002090601f016020900481019282601f1061068c57805160ff19168380011785556106ba565b828001600101855582156106ba579182015b828111156106b957825182559160200191906001019061069e565b5b5090506106c7919061076c565b5090565b828054600181600116156101000203166002900490600052602060002090601f016020900481019282601f1061070c57805160ff191683800117855561073a565b8280016001018555821561073a579182015b8281111561073957825182559160200191906001019061071e565b5b509050610747919061076c565b5090565b60405180606001604052806000815260200160608152602001606081525090565b61078e91905b8082111561078a576000816000905550600101610772565b5090565b90565b600082601f8301126107a257600080fd5b81356107b56107b082610b51565b610b24565b915080825260208301602083018583830111156107d157600080fd5b6107dc838284610c1f565b50505092915050565b6000813590506107f481610c72565b92915050565b60006020828403121561080c57600080fd5b600061081a848285016107e5565b91505092915050565b6000806040838503121561083657600080fd5b6000610844858286016107e5565b925050602083013567ffffffffffffffff81111561086157600080fd5b61086d85828601610791565b9150509250929050565b60006108838383610a1f565b905092915050565b61089481610be3565b82525050565b60006108a582610b8d565b6108af8185610bb0565b9350836020820285016108c185610b7d565b8060005b858110156108fd57848403895281516108de8582610877565b94506108e983610ba3565b925060208a019950506001810190506108c5565b50829750879550505050505092915050565b600061091a82610b98565b6109248185610bc1565b9350610934818560208601610c2e565b61093d81610c61565b840191505092915050565b6000610955600e83610bd2565b91507f426f6f6b7320696e7365727465640000000000000000000000000000000000006000830152602082019050919050565b6000610995601183610bd2565b91507f796f7520617265206e6f74206f776e65720000000000000000000000000000006000830152602082019050919050565b60006060830160008301516109e06000860182610a76565b50602083015184820360208601526109f8828261090f565b91505060408301518482036040860152610a12828261090f565b9150508091505092915050565b6000606083016000830151610a376000860182610a76565b5060208301518482036020860152610a4f828261090f565b91505060408301518482036040860152610a69828261090f565b9150508091505092915050565b610a7f81610c15565b82525050565b6000602082019050610a9a600083018461088b565b92915050565b60006020820190508181036000830152610aba818461089a565b905092915050565b60006020820190508181036000830152610adb81610948565b9050919050565b60006020820190508181036000830152610afb81610988565b9050919050565b60006020820190508181036000830152610b1c81846109c8565b905092915050565b6000604051905081810181811067ffffffffffffffff82111715610b4757600080fd5b8060405250919050565b600067ffffffffffffffff821115610b6857600080fd5b601f19601f8301169050602081019050919050565b6000819050602082019050919050565b600081519050919050565b600081519050919050565b6000602082019050919050565b600082825260208201905092915050565b600082825260208201905092915050565b600082825260208201905092915050565b6000610bee82610bf5565b9050919050565b600073ffffffffffffffffffffffffffffffffffffffff82169050919050565b6000819050919050565b82818337600083830152505050565b60005b83811015610c4c578082015181840152602081019050610c31565b83811115610c5b576000848401525b50505050565b6000601f19601f8301169050919050565b610c7b81610c15565b8114610c8657600080fd5b5056fea365627a7a72315820d2502ddf7a14916368f34fa3b3d85440a77876a96f000269eefcc82c6ab2fe666c6578706572696d656e74616cf564736f6c63430005100040",
  "source": "// SPDX-License-Identifier: GPL-3.0\npragma solidity >=0.4.21 <0.7.0;\npragma experimental ABIEncoderV2;  \n\ncontract EBook{\n\n    struct Books{\n        uint id;\n        string bookName;\n        string status;\n    }\n    address public owner;\n    \n    constructor() public{\n        owner=msg.sender;\n    }\n\n    Books[] books;\n    \n    event Success(string msgs);\n\n    function addBook(uint _id, string memory _bookName) public{\n        // mainly used to restriction based on user\n        require(msg.sender==owner,\"you are not owner\");\n\n        books.push(Books(_id,_bookName,\"not sold\"));\n\n        // event is used to send msg to log which will be accessed by react\n        emit Success(\"Books inserted\");        \n    }\n\n    function getSpecificBook(uint _id) external view returns(Books memory){\n\n        Books storage book= books[_id];\n\n        return book;\n\n    }\n\n    function getAllBook() external view returns(Books[] memory){\n\n        return books;\n\n    }\n\n    // function updateBookStatus(uint _id, string memory _status, address payable reciver) payable public{\n\n    //     Books storage book= books[_id];\n    //     book.status=_status;\n    //     reciver.transfer(10);\n\n    // }\n\n    function updateBookStatus(uint _id, string memory _status) payable public{\n\n        Books storage book= books[_id];\n        book.status=_status;\n     \n    }\n\n}\n\n",
  "sourcePath": "/home/shubham/Desktop/BlockChain/EBookShop/contracts/EBook.sol",
  "compiler": {
    "name": "solc",
    "version": "0.5.16+commit.9c3226ce.Emscripten.clang"
  },
  "schemaVersion": "3.3.1",
  "updatedAt": "2022-01-04T16:22:24.747Z",
  "networkType": "ethereum",
  "devdoc": {
    "methods": {}
  },
  "userdoc": {
    "methods": {}
  }
}