{
  "contractName": "NFT",
  "abi": [
    {
      "inputs": [],
      "stateMutability": "nonpayable",
      "type": "constructor"
    },
    {
      "anonymous": false,
      "inputs": [
        {
          "indexed": true,
          "internalType": "address",
          "name": "owner",
          "type": "address"
        },
        {
          "indexed": true,
          "internalType": "address",
          "name": "approved",
          "type": "address"
        },
        {
          "indexed": true,
          "internalType": "uint256",
          "name": "tokenId",
          "type": "uint256"
        }
      ],
      "name": "Approval",
      "type": "event"
    },
    {
      "anonymous": false,
      "inputs": [
        {
          "indexed": true,
          "internalType": "address",
          "name": "owner",
          "type": "address"
        },
        {
          "indexed": true,
          "internalType": "address",
          "name": "operator",
          "type": "address"
        },
        {
          "indexed": false,
          "internalType": "bool",
          "name": "approved",
          "type": "bool"
        }
      ],
      "name": "ApprovalForAll",
      "type": "event"
    },
    {
      "anonymous": false,
      "inputs": [
        {
          "indexed": true,
          "internalType": "address",
          "name": "from",
          "type": "address"
        },
        {
          "indexed": true,
          "internalType": "address",
          "name": "to",
          "type": "address"
        },
        {
          "indexed": true,
          "internalType": "uint256",
          "name": "tokenId",
          "type": "uint256"
        }
      ],
      "name": "Transfer",
      "type": "event"
    },
    {
      "inputs": [
        {
          "internalType": "address",
          "name": "to",
          "type": "address"
        },
        {
          "internalType": "uint256",
          "name": "tokenId",
          "type": "uint256"
        }
      ],
      "name": "approve",
      "outputs": [],
      "stateMutability": "nonpayable",
      "type": "function"
    },
    {
      "inputs": [
        {
          "internalType": "address",
          "name": "owner",
          "type": "address"
        }
      ],
      "name": "balanceOf",
      "outputs": [
        {
          "internalType": "uint256",
          "name": "",
          "type": "uint256"
        }
      ],
      "stateMutability": "view",
      "type": "function",
      "constant": true
    },
    {
      "inputs": [
        {
          "internalType": "uint256",
          "name": "tokenId",
          "type": "uint256"
        }
      ],
      "name": "getApproved",
      "outputs": [
        {
          "internalType": "address",
          "name": "",
          "type": "address"
        }
      ],
      "stateMutability": "view",
      "type": "function",
      "constant": true
    },
    {
      "inputs": [
        {
          "internalType": "address",
          "name": "owner",
          "type": "address"
        },
        {
          "internalType": "address",
          "name": "operator",
          "type": "address"
        }
      ],
      "name": "isApprovedForAll",
      "outputs": [
        {
          "internalType": "bool",
          "name": "",
          "type": "bool"
        }
      ],
      "stateMutability": "view",
      "type": "function",
      "constant": true
    },
    {
      "inputs": [],
      "name": "name",
      "outputs": [
        {
          "internalType": "string",
          "name": "",
          "type": "string"
        }
      ],
      "stateMutability": "view",
      "type": "function",
      "constant": true
    },
    {
      "inputs": [
        {
          "internalType": "uint256",
          "name": "tokenId",
          "type": "uint256"
        }
      ],
      "name": "ownerOf",
      "outputs": [
        {
          "internalType": "address",
          "name": "",
          "type": "address"
        }
      ],
      "stateMutability": "view",
      "type": "function",
      "constant": true
    },
    {
      "inputs": [
        {
          "internalType": "address",
          "name": "from",
          "type": "address"
        },
        {
          "internalType": "address",
          "name": "to",
          "type": "address"
        },
        {
          "internalType": "uint256",
          "name": "tokenId",
          "type": "uint256"
        }
      ],
      "name": "safeTransferFrom",
      "outputs": [],
      "stateMutability": "nonpayable",
      "type": "function"
    },
    {
      "inputs": [
        {
          "internalType": "address",
          "name": "from",
          "type": "address"
        },
        {
          "internalType": "address",
          "name": "to",
          "type": "address"
        },
        {
          "internalType": "uint256",
          "name": "tokenId",
          "type": "uint256"
        },
        {
          "internalType": "bytes",
          "name": "_data",
          "type": "bytes"
        }
      ],
      "name": "safeTransferFrom",
      "outputs": [],
      "stateMutability": "nonpayable",
      "type": "function"
    },
    {
      "inputs": [
        {
          "internalType": "address",
          "name": "operator",
          "type": "address"
        },
        {
          "internalType": "bool",
          "name": "approved",
          "type": "bool"
        }
      ],
      "name": "setApprovalForAll",
      "outputs": [],
      "stateMutability": "nonpayable",
      "type": "function"
    },
    {
      "inputs": [
        {
          "internalType": "bytes4",
          "name": "interfaceId",
          "type": "bytes4"
        }
      ],
      "name": "supportsInterface",
      "outputs": [
        {
          "internalType": "bool",
          "name": "",
          "type": "bool"
        }
      ],
      "stateMutability": "view",
      "type": "function",
      "constant": true
    },
    {
      "inputs": [],
      "name": "symbol",
      "outputs": [
        {
          "internalType": "string",
          "name": "",
          "type": "string"
        }
      ],
      "stateMutability": "view",
      "type": "function",
      "constant": true
    },
    {
      "inputs": [
        {
          "internalType": "uint256",
          "name": "tokenId",
          "type": "uint256"
        }
      ],
      "name": "tokenURI",
      "outputs": [
        {
          "internalType": "string",
          "name": "",
          "type": "string"
        }
      ],
      "stateMutability": "view",
      "type": "function",
      "constant": true
    },
    {
      "inputs": [
        {
          "internalType": "address",
          "name": "from",
          "type": "address"
        },
        {
          "internalType": "address",
          "name": "to",
          "type": "address"
        },
        {
          "internalType": "uint256",
          "name": "tokenId",
          "type": "uint256"
        }
      ],
      "name": "transferFrom",
      "outputs": [],
      "stateMutability": "nonpayable",
      "type": "function"
    },
    {
      "inputs": [
        {
          "internalType": "address",
          "name": "recipient",
          "type": "address"
        }
      ],
      "name": "mintNFT",
      "outputs": [
        {
          "internalType": "uint256",
          "name": "",
          "type": "uint256"
        }
      ],
      "stateMutability": "nonpayable",
      "type": "function"
    }
  ],
  "bytecode": "0x60806040523480156200001157600080fd5b506040518060400160405280600781526020017f426f6f6b4e4654000000000000000000000000000000000000000000000000008152506040518060400160405280600481526020017f424e465400000000000000000000000000000000000000000000000000000000815250816000908051906020019062000096929190620000b8565b508060019080519060200190620000af929190620000b8565b505050620001cd565b828054620000c69062000197565b90600052602060002090601f016020900481019282620000ea576000855562000136565b82601f106200010557805160ff191683800117855562000136565b8280016001018555821562000136579182015b828111156200013557825182559160200191906001019062000118565b5b50905062000145919062000149565b5090565b5b80821115620001645760008160009055506001016200014a565b5090565b7f4e487b7100000000000000000000000000000000000000000000000000000000600052602260045260246000fd5b60006002820490506001821680620001b057607f821691505b60208210811415620001c757620001c662000168565b5b50919050565b61277a80620001dd6000396000f3fe608060405234801561001057600080fd5b50600436106100ea5760003560e01c80636352211e1161008c578063a22cb46511610066578063a22cb4651461026f578063b88d4fde1461028b578063c87b56dd146102a7578063e985e9c5146102d7576100ea565b80636352211e146101f157806370a082311461022157806395d89b4114610251576100ea565b8063095ea7b3116100c8578063095ea7b31461016d57806323b872dd1461018957806342842e0e146101a557806354ba0f27146101c1576100ea565b806301ffc9a7146100ef57806306fdde031461011f578063081812fc1461013d575b600080fd5b610109600480360381019061010491906116fd565b610307565b6040516101169190611745565b60405180910390f35b6101276103e9565b60405161013491906117f9565b60405180910390f35b61015760048036038101906101529190611851565b61047b565b60405161016491906118bf565b60405180910390f35b61018760048036038101906101829190611906565b610500565b005b6101a3600480360381019061019e9190611946565b610618565b005b6101bf60048036038101906101ba9190611946565b610678565b005b6101db60048036038101906101d69190611999565b610698565b6040516101e891906119d5565b60405180910390f35b61020b60048036038101906102069190611851565b6106c5565b60405161021891906118bf565b60405180910390f35b61023b60048036038101906102369190611999565b610777565b60405161024891906119d5565b60405180910390f35b61025961082f565b60405161026691906117f9565b60405180910390f35b61028960048036038101906102849190611a1c565b6108c1565b005b6102a560048036038101906102a09190611b91565b6108d7565b005b6102c160048036038101906102bc9190611851565b610939565b6040516102ce91906117f9565b60405180910390f35b6102f160048036038101906102ec9190611c14565b6109e0565b6040516102fe9190611745565b60405180910390f35b60007f80ac58cd000000000000000000000000000000000000000000000000000000007bffffffffffffffffffffffffffffffffffffffffffffffffffffffff1916827bffffffffffffffffffffffffffffffffffffffffffffffffffffffff191614806103d257507f5b5e139f000000000000000000000000000000000000000000000000000000007bffffffffffffffffffffffffffffffffffffffffffffffffffffffff1916827bffffffffffffffffffffffffffffffffffffffffffffffffffffffff1916145b806103e257506103e182610a74565b5b9050919050565b6060600080546103f890611c83565b80601f016020809104026020016040519081016040528092919081815260200182805461042490611c83565b80156104715780601f1061044657610100808354040283529160200191610471565b820191906000526020600020905b81548152906001019060200180831161045457829003601f168201915b5050505050905090565b600061048682610ade565b6104c5576040517f08c379a00000000000000000000000000000000000000000000000000000000081526004016104bc90611d27565b60405180910390fd5b6004600083815260200190815260200160002060009054906101000a900473ffffffffffffffffffffffffffffffffffffffff169050919050565b600061050b826106c5565b90508073ffffffffffffffffffffffffffffffffffffffff168373ffffffffffffffffffffffffffffffffffffffff16141561057c576040517f08c379a000000000000000000000000000000000000000000000000000000000815260040161057390611db9565b60405180910390fd5b8073ffffffffffffffffffffffffffffffffffffffff1661059b610b4a565b73ffffffffffffffffffffffffffffffffffffffff1614806105ca57506105c9816105c4610b4a565b6109e0565b5b610609576040517f08c379a000000000000000000000000000000000000000000000000000000000815260040161060090611e4b565b60405180910390fd5b6106138383610b52565b505050565b610629610623610b4a565b82610c0b565b610668576040517f08c379a000000000000000000000000000000000000000000000000000000000815260040161065f90611edd565b60405180910390fd5b610673838383610ce9565b505050565b610693838383604051806020016040528060008152506108d7565b505050565b60006106a46006610f45565b60006106b06006610f5b565b90506106bc8382610f69565b80915050919050565b6000806002600084815260200190815260200160002060009054906101000a900473ffffffffffffffffffffffffffffffffffffffff169050600073ffffffffffffffffffffffffffffffffffffffff168173ffffffffffffffffffffffffffffffffffffffff16141561076e576040517f08c379a000000000000000000000000000000000000000000000000000000000815260040161076590611f6f565b60405180910390fd5b80915050919050565b60008073ffffffffffffffffffffffffffffffffffffffff168273ffffffffffffffffffffffffffffffffffffffff1614156107e8576040517f08c379a00000000000000000000000000000000000000000000000000000000081526004016107df90612001565b60405180910390fd5b600360008373ffffffffffffffffffffffffffffffffffffffff1673ffffffffffffffffffffffffffffffffffffffff168152602001908152602001600020549050919050565b60606001805461083e90611c83565b80601f016020809104026020016040519081016040528092919081815260200182805461086a90611c83565b80156108b75780601f1061088c576101008083540402835291602001916108b7565b820191906000526020600020905b81548152906001019060200180831161089a57829003601f168201915b5050505050905090565b6108d36108cc610b4a565b8383610f87565b5050565b6108e86108e2610b4a565b83610c0b565b610927576040517f08c379a000000000000000000000000000000000000000000000000000000000815260040161091e90611edd565b60405180910390fd5b610933848484846110f4565b50505050565b606061094482610ade565b610983576040517f08c379a000000000000000000000000000000000000000000000000000000000815260040161097a90612093565b60405180910390fd5b600061098d611150565b905060008151116109ad57604051806020016040528060008152506109d8565b806109b784611167565b6040516020016109c89291906120ef565b6040516020818303038152906040525b915050919050565b6000600560008473ffffffffffffffffffffffffffffffffffffffff1673ffffffffffffffffffffffffffffffffffffffff16815260200190815260200160002060008373ffffffffffffffffffffffffffffffffffffffff1673ffffffffffffffffffffffffffffffffffffffff16815260200190815260200160002060009054906101000a900460ff16905092915050565b60007f01ffc9a7000000000000000000000000000000000000000000000000000000007bffffffffffffffffffffffffffffffffffffffffffffffffffffffff1916827bffffffffffffffffffffffffffffffffffffffffffffffffffffffff1916149050919050565b60008073ffffffffffffffffffffffffffffffffffffffff166002600084815260200190815260200160002060009054906101000a900473ffffffffffffffffffffffffffffffffffffffff1673ffffffffffffffffffffffffffffffffffffffff1614159050919050565b600033905090565b816004600083815260200190815260200160002060006101000a81548173ffffffffffffffffffffffffffffffffffffffff021916908373ffffffffffffffffffffffffffffffffffffffff160217905550808273ffffffffffffffffffffffffffffffffffffffff16610bc5836106c5565b73ffffffffffffffffffffffffffffffffffffffff167f8c5be1e5ebec7d5bd14f71427d1e84f3dd0314c0f7b2291e5b200ac8c7c3b92560405160405180910390a45050565b6000610c1682610ade565b610c55576040517f08c379a0000000000000000000000000000000000000000000000000000000008152600401610c4c90612185565b60405180910390fd5b6000610c60836106c5565b90508073ffffffffffffffffffffffffffffffffffffffff168473ffffffffffffffffffffffffffffffffffffffff161480610ccf57508373ffffffffffffffffffffffffffffffffffffffff16610cb78461047b565b73ffffffffffffffffffffffffffffffffffffffff16145b80610ce05750610cdf81856109e0565b5b91505092915050565b8273ffffffffffffffffffffffffffffffffffffffff16610d09826106c5565b73ffffffffffffffffffffffffffffffffffffffff1614610d5f576040517f08c379a0000000000000000000000000000000000000000000000000000000008152600401610d5690612217565b60405180910390fd5b600073ffffffffffffffffffffffffffffffffffffffff168273ffffffffffffffffffffffffffffffffffffffff161415610dcf576040517f08c379a0000000000000000000000000000000000000000000000000000000008152600401610dc6906122a9565b60405180910390fd5b610dda8383836112c8565b610de5600082610b52565b6001600360008573ffffffffffffffffffffffffffffffffffffffff1673ffffffffffffffffffffffffffffffffffffffff1681526020019081526020016000206000828254610e3591906122f8565b925050819055506001600360008473ffffffffffffffffffffffffffffffffffffffff1673ffffffffffffffffffffffffffffffffffffffff1681526020019081526020016000206000828254610e8c919061232c565b92505081905550816002600083815260200190815260200160002060006101000a81548173ffffffffffffffffffffffffffffffffffffffff021916908373ffffffffffffffffffffffffffffffffffffffff160217905550808273ffffffffffffffffffffffffffffffffffffffff168473ffffffffffffffffffffffffffffffffffffffff167fddf252ad1be2c89b69c2b068fc378daa952ba7f163c4a11628f55a4df523b3ef60405160405180910390a4505050565b6001816000016000828254019250508190555050565b600081600001549050919050565b610f838282604051806020016040528060008152506112cd565b5050565b8173ffffffffffffffffffffffffffffffffffffffff168373ffffffffffffffffffffffffffffffffffffffff161415610ff6576040517f08c379a0000000000000000000000000000000000000000000000000000000008152600401610fed906123ce565b60405180910390fd5b80600560008573ffffffffffffffffffffffffffffffffffffffff1673ffffffffffffffffffffffffffffffffffffffff16815260200190815260200160002060008473ffffffffffffffffffffffffffffffffffffffff1673ffffffffffffffffffffffffffffffffffffffff16815260200190815260200160002060006101000a81548160ff0219169083151502179055508173ffffffffffffffffffffffffffffffffffffffff168373ffffffffffffffffffffffffffffffffffffffff167f17307eab39ab6107e8899845ad3d59bd9653f200f220920489ca2b5937696c31836040516110e79190611745565b60405180910390a3505050565b6110ff848484610ce9565b61110b84848484611328565b61114a576040517f08c379a000000000000000000000000000000000000000000000000000000000815260040161114190612460565b60405180910390fd5b50505050565b606060405180602001604052806000815250905090565b606060008214156111af576040518060400160405280600181526020017f300000000000000000000000000000000000000000000000000000000000000081525090506112c3565b600082905060005b600082146111e15780806111ca90612480565b915050600a826111da91906124f8565b91506111b7565b60008167ffffffffffffffff8111156111fd576111fc611a66565b5b6040519080825280601f01601f19166020018201604052801561122f5781602001600182028036833780820191505090505b5090505b600085146112bc5760018261124891906122f8565b9150600a856112579190612529565b6030611263919061232c565b60f81b8183815181106112795761127861255a565b5b60200101907effffffffffffffffffffffffffffffffffffffffffffffffffffffffffffff1916908160001a905350600a856112b591906124f8565b9450611233565b8093505050505b919050565b505050565b6112d783836114b0565b6112e46000848484611328565b611323576040517f08c379a000000000000000000000000000000000000000000000000000000000815260040161131a90612460565b60405180910390fd5b505050565b60006113498473ffffffffffffffffffffffffffffffffffffffff1661167e565b156114a3578373ffffffffffffffffffffffffffffffffffffffff1663150b7a02611372610b4a565b8786866040518563ffffffff1660e01b815260040161139494939291906125de565b6020604051808303816000875af19250505080156113d057506040513d601f19601f820116820180604052508101906113cd919061263f565b60015b611453573d8060008114611400576040519150601f19603f3d011682016040523d82523d6000602084013e611405565b606091505b5060008151141561144b576040517f08c379a000000000000000000000000000000000000000000000000000000000815260040161144290612460565b60405180910390fd5b805181602001fd5b63150b7a0260e01b7bffffffffffffffffffffffffffffffffffffffffffffffffffffffff1916817bffffffffffffffffffffffffffffffffffffffffffffffffffffffff1916149150506114a8565b600190505b949350505050565b600073ffffffffffffffffffffffffffffffffffffffff168273ffffffffffffffffffffffffffffffffffffffff161415611520576040517f08c379a0000000000000000000000000000000000000000000000000000000008152600401611517906126b8565b60405180910390fd5b61152981610ade565b15611569576040517f08c379a000000000000000000000000000000000000000000000000000000000815260040161156090612724565b60405180910390fd5b611575600083836112c8565b6001600360008473ffffffffffffffffffffffffffffffffffffffff1673ffffffffffffffffffffffffffffffffffffffff16815260200190815260200160002060008282546115c5919061232c565b92505081905550816002600083815260200190815260200160002060006101000a81548173ffffffffffffffffffffffffffffffffffffffff021916908373ffffffffffffffffffffffffffffffffffffffff160217905550808273ffffffffffffffffffffffffffffffffffffffff16600073ffffffffffffffffffffffffffffffffffffffff167fddf252ad1be2c89b69c2b068fc378daa952ba7f163c4a11628f55a4df523b3ef60405160405180910390a45050565b600080823b905060008111915050919050565b6000604051905090565b600080fd5b600080fd5b60007fffffffff0000000000000000000000000000000000000000000000000000000082169050919050565b6116da816116a5565b81146116e557600080fd5b50565b6000813590506116f7816116d1565b92915050565b6000602082840312156117135761171261169b565b5b6000611721848285016116e8565b91505092915050565b60008115159050919050565b61173f8161172a565b82525050565b600060208201905061175a6000830184611736565b92915050565b600081519050919050565b600082825260208201905092915050565b60005b8381101561179a57808201518184015260208101905061177f565b838111156117a9576000848401525b50505050565b6000601f19601f8301169050919050565b60006117cb82611760565b6117d5818561176b565b93506117e581856020860161177c565b6117ee816117af565b840191505092915050565b6000602082019050818103600083015261181381846117c0565b905092915050565b6000819050919050565b61182e8161181b565b811461183957600080fd5b50565b60008135905061184b81611825565b92915050565b6000602082840312156118675761186661169b565b5b60006118758482850161183c565b91505092915050565b600073ffffffffffffffffffffffffffffffffffffffff82169050919050565b60006118a98261187e565b9050919050565b6118b98161189e565b82525050565b60006020820190506118d460008301846118b0565b92915050565b6118e38161189e565b81146118ee57600080fd5b50565b600081359050611900816118da565b92915050565b6000806040838503121561191d5761191c61169b565b5b600061192b858286016118f1565b925050602061193c8582860161183c565b9150509250929050565b60008060006060848603121561195f5761195e61169b565b5b600061196d868287016118f1565b935050602061197e868287016118f1565b925050604061198f8682870161183c565b9150509250925092565b6000602082840312156119af576119ae61169b565b5b60006119bd848285016118f1565b91505092915050565b6119cf8161181b565b82525050565b60006020820190506119ea60008301846119c6565b92915050565b6119f98161172a565b8114611a0457600080fd5b50565b600081359050611a16816119f0565b92915050565b60008060408385031215611a3357611a3261169b565b5b6000611a41858286016118f1565b9250506020611a5285828601611a07565b9150509250929050565b600080fd5b600080fd5b7f4e487b7100000000000000000000000000000000000000000000000000000000600052604160045260246000fd5b611a9e826117af565b810181811067ffffffffffffffff82111715611abd57611abc611a66565b5b80604052505050565b6000611ad0611691565b9050611adc8282611a95565b919050565b600067ffffffffffffffff821115611afc57611afb611a66565b5b611b05826117af565b9050602081019050919050565b82818337600083830152505050565b6000611b34611b2f84611ae1565b611ac6565b905082815260208101848484011115611b5057611b4f611a61565b5b611b5b848285611b12565b509392505050565b600082601f830112611b7857611b77611a5c565b5b8135611b88848260208601611b21565b91505092915050565b60008060008060808587031215611bab57611baa61169b565b5b6000611bb9878288016118f1565b9450506020611bca878288016118f1565b9350506040611bdb8782880161183c565b925050606085013567ffffffffffffffff811115611bfc57611bfb6116a0565b5b611c0887828801611b63565b91505092959194509250565b60008060408385031215611c2b57611c2a61169b565b5b6000611c39858286016118f1565b9250506020611c4a858286016118f1565b9150509250929050565b7f4e487b7100000000000000000000000000000000000000000000000000000000600052602260045260246000fd5b60006002820490506001821680611c9b57607f821691505b60208210811415611caf57611cae611c54565b5b50919050565b7f4552433732313a20617070726f76656420717565727920666f72206e6f6e657860008201527f697374656e7420746f6b656e0000000000000000000000000000000000000000602082015250565b6000611d11602c8361176b565b9150611d1c82611cb5565b604082019050919050565b60006020820190508181036000830152611d4081611d04565b9050919050565b7f4552433732313a20617070726f76616c20746f2063757272656e74206f776e6560008201527f7200000000000000000000000000000000000000000000000000000000000000602082015250565b6000611da360218361176b565b9150611dae82611d47565b604082019050919050565b60006020820190508181036000830152611dd281611d96565b9050919050565b7f4552433732313a20617070726f76652063616c6c6572206973206e6f74206f7760008201527f6e6572206e6f7220617070726f76656420666f7220616c6c0000000000000000602082015250565b6000611e3560388361176b565b9150611e4082611dd9565b604082019050919050565b60006020820190508181036000830152611e6481611e28565b9050919050565b7f4552433732313a207472616e736665722063616c6c6572206973206e6f74206f60008201527f776e6572206e6f7220617070726f766564000000000000000000000000000000602082015250565b6000611ec760318361176b565b9150611ed282611e6b565b604082019050919050565b60006020820190508181036000830152611ef681611eba565b9050919050565b7f4552433732313a206f776e657220717565727920666f72206e6f6e657869737460008201527f656e7420746f6b656e0000000000000000000000000000000000000000000000602082015250565b6000611f5960298361176b565b9150611f6482611efd565b604082019050919050565b60006020820190508181036000830152611f8881611f4c565b9050919050565b7f4552433732313a2062616c616e636520717565727920666f7220746865207a6560008201527f726f206164647265737300000000000000000000000000000000000000000000602082015250565b6000611feb602a8361176b565b9150611ff682611f8f565b604082019050919050565b6000602082019050818103600083015261201a81611fde565b9050919050565b7f4552433732314d657461646174613a2055524920717565727920666f72206e6f60008201527f6e6578697374656e7420746f6b656e0000000000000000000000000000000000602082015250565b600061207d602f8361176b565b915061208882612021565b604082019050919050565b600060208201905081810360008301526120ac81612070565b9050919050565b600081905092915050565b60006120c982611760565b6120d381856120b3565b93506120e381856020860161177c565b80840191505092915050565b60006120fb82856120be565b915061210782846120be565b91508190509392505050565b7f4552433732313a206f70657261746f7220717565727920666f72206e6f6e657860008201527f697374656e7420746f6b656e0000000000000000000000000000000000000000602082015250565b600061216f602c8361176b565b915061217a82612113565b604082019050919050565b6000602082019050818103600083015261219e81612162565b9050919050565b7f4552433732313a207472616e73666572206f6620746f6b656e2074686174206960008201527f73206e6f74206f776e0000000000000000000000000000000000000000000000602082015250565b600061220160298361176b565b915061220c826121a5565b604082019050919050565b60006020820190508181036000830152612230816121f4565b9050919050565b7f4552433732313a207472616e7366657220746f20746865207a65726f2061646460008201527f7265737300000000000000000000000000000000000000000000000000000000602082015250565b600061229360248361176b565b915061229e82612237565b604082019050919050565b600060208201905081810360008301526122c281612286565b9050919050565b7f4e487b7100000000000000000000000000000000000000000000000000000000600052601160045260246000fd5b60006123038261181b565b915061230e8361181b565b925082821015612321576123206122c9565b5b828203905092915050565b60006123378261181b565b91506123428361181b565b9250827fffffffffffffffffffffffffffffffffffffffffffffffffffffffffffffffff03821115612377576123766122c9565b5b828201905092915050565b7f4552433732313a20617070726f766520746f2063616c6c657200000000000000600082015250565b60006123b860198361176b565b91506123c382612382565b602082019050919050565b600060208201905081810360008301526123e7816123ab565b9050919050565b7f4552433732313a207472616e7366657220746f206e6f6e20455243373231526560008201527f63656976657220696d706c656d656e7465720000000000000000000000000000602082015250565b600061244a60328361176b565b9150612455826123ee565b604082019050919050565b600060208201905081810360008301526124798161243d565b9050919050565b600061248b8261181b565b91507fffffffffffffffffffffffffffffffffffffffffffffffffffffffffffffffff8214156124be576124bd6122c9565b5b600182019050919050565b7f4e487b7100000000000000000000000000000000000000000000000000000000600052601260045260246000fd5b60006125038261181b565b915061250e8361181b565b92508261251e5761251d6124c9565b5b828204905092915050565b60006125348261181b565b915061253f8361181b565b92508261254f5761254e6124c9565b5b828206905092915050565b7f4e487b7100000000000000000000000000000000000000000000000000000000600052603260045260246000fd5b600081519050919050565b600082825260208201905092915050565b60006125b082612589565b6125ba8185612594565b93506125ca81856020860161177c565b6125d3816117af565b840191505092915050565b60006080820190506125f360008301876118b0565b61260060208301866118b0565b61260d60408301856119c6565b818103606083015261261f81846125a5565b905095945050505050565b600081519050612639816116d1565b92915050565b6000602082840312156126555761265461169b565b5b60006126638482850161262a565b91505092915050565b7f4552433732313a206d696e7420746f20746865207a65726f2061646472657373600082015250565b60006126a260208361176b565b91506126ad8261266c565b602082019050919050565b600060208201905081810360008301526126d181612695565b9050919050565b7f4552433732313a20746f6b656e20616c7265616479206d696e74656400000000600082015250565b600061270e601c8361176b565b9150612719826126d8565b602082019050919050565b6000602082019050818103600083015261273d81612701565b905091905056fea26469706673582212202ea39ab47fed668998c543718af52f141b7aa293cb034233324af26625f07f4764736f6c634300080b0033",
  "immutableReferences": {},
  "source": "// SPDX-License-Identifier: MIT\npragma solidity ^0.8.0;\n\nimport \"@openzeppelin/contracts/token/ERC721/ERC721.sol\";\nimport \"@openzeppelin/contracts/utils/Counters.sol\";\n\ncontract NFT is ERC721 {\n    using Counters for Counters.Counter;\n    Counters.Counter private currentTokenId;\n    \n    constructor() ERC721(\"BookNFT\", \"BNFT\") {}\n    \n    function mintNFT(address recipient) public returns (uint256)\n    {\n        currentTokenId.increment();\n        uint256 newItemId = currentTokenId.current();\n        _safeMint(recipient, newItemId);\n        return newItemId;\n    }\n}",
  "sourcePath": "/home/shubham/Desktop/BlockChain/EBookShop/contracts/NFT.sol",
  "compiler": {
    "name": "solc",
    "version": "0.8.11+commit.d7f03943.Emscripten.clang"
  },
  "schemaVersion": "3.4.3",
  "updatedAt": "2022-01-24T15:00:30.202Z",
  "networkType": "ethereum",
  "devdoc": {
    "kind": "dev",
    "methods": {
      "approve(address,uint256)": {
        "details": "See {IERC721-approve}."
      },
      "balanceOf(address)": {
        "details": "See {IERC721-balanceOf}."
      },
      "getApproved(uint256)": {
        "details": "See {IERC721-getApproved}."
      },
      "isApprovedForAll(address,address)": {
        "details": "See {IERC721-isApprovedForAll}."
      },
      "name()": {
        "details": "See {IERC721Metadata-name}."
      },
      "ownerOf(uint256)": {
        "details": "See {IERC721-ownerOf}."
      },
      "safeTransferFrom(address,address,uint256)": {
        "details": "See {IERC721-safeTransferFrom}."
      },
      "safeTransferFrom(address,address,uint256,bytes)": {
        "details": "See {IERC721-safeTransferFrom}."
      },
      "setApprovalForAll(address,bool)": {
        "details": "See {IERC721-setApprovalForAll}."
      },
      "supportsInterface(bytes4)": {
        "details": "See {IERC165-supportsInterface}."
      },
      "symbol()": {
        "details": "See {IERC721Metadata-symbol}."
      },
      "tokenURI(uint256)": {
        "details": "See {IERC721Metadata-tokenURI}."
      },
      "transferFrom(address,address,uint256)": {
        "details": "See {IERC721-transferFrom}."
      }
    },
    "version": 1
  },
  "userdoc": {
    "kind": "user",
    "methods": {},
    "version": 1
  }
}